:020000040000FA
:100000000080331000000C8D0000096100000963BE
:1000100000000000000000000000000000000000E0
:1000200000000000000000000000000000000C952F
:10003000000000000000000000000C9700000C9978
:10004000000009650000096700000A53000009BDAF
:1000500000000A0700000A9900000C0B00000C9B2E
:1000600000000C9B00000C9B00000C9B00000C9BF4
:1000700000000B0F00000BBB00000C9B00000C9B52
:1000800000000C9B00000C9B00000C9B00000C9BD4
:1000900000000C9B00000C9B00000C9B00000C9BC4
:1000A00000000C9B00000C9B00000C9B00000C9BB4
:1000B00000000C9B00000C9B00000C9B00000C9BA4
:1000C0000348854607F08CFC004800470000033FCA
:1000D0000080331010B507F05FFDBA2801D08B48BF
:1000E00010BD0920000310BD10B504468079884971
:1000F000002802D1E079002801D0084610BDA0698F
:1001000000F0CEFD217A81420AD0824A1278012A7B
:1001100001D0002904D01B21C0B28902401810BDB3
:10012000A083C0B22072A0810920000310BDF0B5E9
:100130000446784E6D2540792D02317885B05428DB
:100140006DD006DC002838D001283AD04F287DD168
:10015000A4E0842825D0C0281FD0C22876D1A07959
:10016000002802D1E079002802D0694805B0F0BD2E
:10017000012905D12146684807F03CFD0028F5D04B
:100180003078022862D0307BC22801D0012100E003
:100190000021204607F028FDE8E7204607F030FD63
:1001A000E4E7217AA069FFF795FF09210903884256
:1001B000DCD1207AA083A0816DE007F0B7FD00209C
:1001C000F9E7207A002807D0012905D121465248B5
:1001D00007F010FD0028C9D020690178427809068F
:1001E000120451188278C078120251184018006821
:1001F0006A46010E1170010C5170010A9170D070A5
:1002000004226946A06900F0B1F90620A083317884
:100210000129D0D1217A0629CDD24048A6E7207AFB
:10022000002807D0012905D121463B4807F0E2FC10
:1002300000289BD03A4801210170201D02902069BE
:10024000384F03907868804702A800E02AE002F067
:100250004AFB3868062281680888050AA06900F010
:1002600085F9062D07D9A81FC2B23868C168A069F0
:10027000801D00F07BF9A58331782846012906D13D
:10028000217A814203D26121090208436EE72449A1
:10029000A581002008700920000367E72046FFF7CA
:1002A00023FF63E7284661E7F8B51A4F0446F8785C
:1002B0000025002802D0FD7007F074FC3878022871
:1002C0000AD1208867221202052803D3A08A6189F7
:1002D000884201D01046F8BD6079C02800D1257150
:1002E000092636036D202179000200290AD165799B
:1002F0002046FFF71CFFC22D04D1B042F2D00028E7
:1003000000D1304661793973F8BD0000000069857D
:1003100000006A86008004D000800580000061062D
:100320000080000000800AD010B500F002FB2849D0
:10033000002008730122CA7000F0F2FC10BD02F028
:10034000DFFE01F004FE03F00EF901F0C2FA2148CD
:100350004068804703F029F91F48012606701F49AD
:1003600000250D601E490969090703D5057000F0D5
:10037000D1FE01E000F0B2FEFFF7D6FF07204005F6
:1003800085611348103007F0E6FAC0B200F07EFA3B
:100390000F4C144F257014484078002806D0267062
:1003A000114807F08FFC104807F097FC38780028B8
:1003B00007D0022020700B4807F038FC094807F0EE
:1003C00045FCFF2020700948056120BFE3E70000DD
:1003D000008004D000800AD00080002F00800044FC
:1003E00000E801000080060800800580E000ED00C4
:1003F00010B507F09DFA10BD10B50C460146204619
:1004000007F09FFA204610BD017842780802104399
:10041000704741700A0A02700846704710B50346DB
:1004200001E019705B1C521EFBD210BD10B50346D3
:1004300003E00C781C70491C5B1C521EF9D210BDE5
:1004400070B50446C11D3048304AC166014680314E
:100450002F4D24C1FF26213648398E872D498167CB
:100460002D4901672D49416707F022FC26493234A6
:1004700088318D652A480C644865084640300681FD
:10048000284848642848C86428480865084607F092
:10049000C8FB70BDF8B5044669220021FFF7BEFF16
:1004A00023492046FFF7A8FF002709206771E07164
:1004B000024620461FA10830FFF7B8FF264611204C
:1004C000203670720120F0720520307365212046BD
:1004D00009042D30FFF790FF7774254627714035CA
:1004E00009206F76B0740246204615A13330FFF71D
:1004F0009DFFC0202875802068750F20A8757F207B
:10050000E8752F76F8BD00000080058000007D684A
:10051000000002A90080028C008003AC008000086B
:1005200000007D380080016C0080004C00800004D9
:10053000A569965A3B7418000090AABB0000000001
:10054000097880700290AABB00000000FF30000A0A
:10055000704710B5002A05D007F0DDF9C0B2FF30B2
:10056000000A10BD002010BD0078704710B5884209
:1005700004D311E00B780370401C491C1346521E33
:1005800092B2002BF6D110BD8B18203BDC7F831874
:10059000203B521EDC7792B2002AF5D110BD10B577
:1005A00007F0A7F910BD0246002004E01378491EA9
:1005B0005840C9B2521C0029F8D1704708B50A4604
:1005C0000021009101466B46002007F058FB00987F
:1005D000C0B208BD10B505E0521ED2B2835C8C5C7F
:1005E00063408354002AF7D110BD10B505E0521EB8
:1005F000D2B2835C8C5C63408354002AF7D110BD77
:100600000146007849780002084370470278C178B3
:10061000120611434278807812040002024311430B
:10062000084670470A0A0270417070470A0E02704D
:100630000A0C42700A0A8270C1707047000110B53E
:100640000143002007F053FB10BD10B5304AD368BA
:1006500011242343D36006281AD007280AD008287B
:1006600016D0802805D12B480168012212031143BE
:10067000016010BD284810601920800188409061F9
:10068000116901200143116191680143916010BD1E
:10069000106940084000106110BD7CB51F4C069EDB
:1006A000A468E40601D504060DD58024A0431D24CA
:1006B000E404E56AAD07FCD18C180096019407F0BC
:1006C000D0FA01207CBD00207CBD1CB50446002270
:1006D00011460820FFF7B9FF00221149002C0A60DB
:1006E0000BD0012C0DD0022C06D100910D4B0192A4
:1006F0001146012007F0B5FA1CBD094A0949FF203F
:1007000002E000221146104607F0B4FA1CBD0000BA
:1007100000E80700E000E2000006010200E90280B4
:10072000008000040080004C70B5444CE368FF2555
:1007300001352B43E360802805D007280DD02069C0
:10074000A843206170BD3E49052088633D4801688B
:10075000012252031143016070BD05200004606056
:100760003948007800280AD15000384A105A0F2220
:10077000D20151434843032107F095F820622069D4
:1007800028432061A0682843A06070BD000110B517
:100790000143012007F0ABFA10BDFFB50E468021E2
:1007A000884304462A4883B0C07A0C9F1546002827
:1007B00003D0C00004430420044300221146082053
:1007C000FFF7B2FF1D20C004C16A8905890FFBD164
:1007D0001B48816B0029FCD17019019000972A46B3
:1007E00031462046069B07F055FA012007B0F0BDC0
:1007F00070B5044616480D30FFF7FAFD0546002295
:1008000011460820FFF790FF00201249002C0860D5
:1008100006D0012C0DD0022C0AD1294607F04DFA42
:100820002946FF2007F049FA09480549407A8860BF
:1008300070BD2946002007F040FA70BD00E80700AF
:1008400000E90100E000E2000080058000007D4832
:100850000080068400800008E9200004016801226D
:100860001204114301604168D200114341607F21AD
:1008700081607047E920000401680122120491435D
:1008800001604168D20091434160704770B52C49C6
:100890000A682C4B1A430A602B4A116803231B0376
:1008A0001943116007214905062834D004DC0128CA
:1008B00015D0022804D11DE0FD280FD0FE2825D038
:1008C0000C2010601D20C0041122836A9B07FCD0FD
:1008D00088691042FCD088699043886170BD88693E
:1008E0000007FCD58869082290438861174807F003
:1008F000CCF970BD88690006FCD5886980229043D8
:1009000088610121124807F081F970BD002110486B
:1009100007F082F970BD0F4D00242C700E48046062
:1009200000F0F8FB0D4804705520287002F021FB00
:1009300070BD03480168C2041143016070470000A4
:1009400000E8010002010000E000E10000800580F5
:10095000008006080080002F0080004400800031E5
:10096000FEE77047704710B5B2480169890724D582
:10097000B14A002111700069400607D50121AF4836
:1009800007F091F907F0B8F9002110E0AC480078C1
:1009900001280FD1A948407800280BD00720400536
:1009A000816908221143816107F0A6F90121A54858
:1009B00006F0E8FFA14807F068F910BD10B5A2489D
:1009C00081680822914381609A4800691021C2071A
:1009D00007204005002A826905D00A438261002071
:1009E000FFF706FF10BD8A4382610121934807F09B
:1009F0005AF9934800780128F4D107F07DF9FD21D8
:100A0000904806F0BFFF10B5904A106900211161AF
:100A1000894B1970C10317D4884BC406D96E203195
:100A2000002C01DA0C799463C00411D518780028E1
:100A300001D14879906386488649408882B27F48D0
:100A400007F045F9002803D100217C4807F02BF975
:100A500010BD10B57748006901077F480AD5764A6E
:100A60000021117081690122114381610020FFF78B
:100A70002CFE10BD81694908490081610121774838
:100A800007F0CAF86E4800780228F2D107F034F96E
:100A9000FD216C4806F076FF10B5714A10690021FF
:100AA00011614203520F2ED1FF220232104220D098
:100AB0001D20C004C06A80061CD56A480278E02A5E
:100AC00021D101705E48007801280ED0634800787B
:100AD00000280AD01104886980221043886107F039
:100AE0000BF90221574806F04DFF00215B4807F043
:100AF0008DF810BD5C485B49408882B2574807F0CA
:100B00009AF80028F5D1554807F09BF810BD70B54C
:100B1000564801785648574C022905D046490A786C
:100B20000125012A08D01DE00168491C01606069A7
:100B300040084000606170BD0268521C026062693A
:100B400052085200626100687D221201904209D968
:100B5000E0682843E06048490C20086007F0CCF8C2
:100B6000062127E00878552805D160694008400033
:100B7000606100F0A7F939484078002802D1606927
:100B8000C007D8D0E0682843E060606940084000B2
:100B900060613A480078002803D0012002F090FB01
:100BA00070BD00212D4807F056F80028F8D107F055
:100BB000A3F8FE21234806F0E5FE10B52B48017886
:100BC000FF2001302B4C012904D01C490979002950
:100BD0000BD107E026490A68521C0A60616981430B
:100BE000616110BD6169C90509D5E1680143E16032
:100BF0006169814361610021104807F073F8606901
:100C0000012109038843606110BD1B494020086031
:100C10000022E92109044A61194A1060194B012296
:100C20001A70C9681140184A117013498039086058
:100C30007047000000E801000080002F0080058060
:100C4000008004D0008004E000E0050000E901001D
:100C500000800008008003AC00E00000008006086F
:100C600000E902000080004C008000040080003990
:100C70000080004400E80700E000E1800080000000
:100C8000E000E28000800036008000480348004712
:100C9000FEE7FEE7FEE7FEE7FEE7FEE70000033FB4
:100CA00010B50446F02020702C2060700146A21C74
:100CB000154807F036F82E20F12121542F21042069
:100CC00060543421F2226254352160543A21F322D7
:100CD00062543B2160544020F421215441202021C2
:100CE0002154622010BD38B514460A4607490091C8
:100CF00001466B46002006F0C2FF009980B20A0A46
:100D00002270617038BD000000DE01800000636366
:100D1000704710B50EA211A1FFF7BCFB012010BD5A
:100D200010B504461048FFF7F4FF0F48FFF788FBA3
:100D30000D494879002802D1CA79C81D1454087990
:100D4000002804D108482030817C12300C5410BD9A
:100D50000978807002900347000000003B7418007F
:100D6000009003470000000000800664002904D0C2
:100D70000006000E00D0012070470020704770B5BB
:100D80000546032406F0C8FF0246D003C00F2946DB
:100D900006F0B7FF2146641E0246E4B2FFF7E6FF05
:100DA0000028F2D170BDF7B582B00746032406F0E3
:100DB000B3FFC0031B4DC60F3A463046049B039950
:100DC00006F0A4FF00900007000F17D0022802D001
:100DD00005280BD103E028698005FCD406E03946DC
:100DE000049A039806F097FD002807D02146641E58
:100DF000E4B20098FFF7BAFF0028DDD105B0F0BDDE
:100E000001200949C0040860704707204005016AB5
:100E10000422914301620549500408600249803967
:100E20000860704700E80100E000E180E000E28037
:100E3000E9200004C0687047E92109048860704710
:100E4000E9221204536883430B4353607047E9223D
:100E50001204536883430B4353607047E920000436
:100E6000016870229143103101604168F022914382
:100E70001031416081680222114381607047E9208E
:100E800000044168F02291434160816802221143CD
:100E900081607047E92000044168F022914341607D
:100EA00081680222914381607047E9200004416813
:100EB000F022914310314160816802221143816028
:100EC0007047F2E7E448017801228908002905D03B
:100ED0000178091F01700178114301700178C90779
:100EE000017807D04908490001700078800700D5D3
:100EF000C5E7CFE711430170D7E77047704710B5DA
:100F000002F080FB10BD10B502F07CFBC0B210BD3A
:100F100010B50C46002809D102F0F5FCE9200004C8
:100F200010228168002C02D01143816010BD9143D2
:100F3000FBE7E9221204012806D0002803D1D0687B
:100F4000C006C00F08707047D068C007F9E70128D5
:100F50001CD1E92000040368DB08DB005B1C036094
:100F600043681B091B010933436003691B091B010B
:100F70001343036100224261B84A402010600029F7
:100F800001D0B74901E0B649803108607047704729
:100F9000704710B502F008FC10BD10B502F0A1FBBF
:100FA000002010BD704770477047F0B5C1B00C46C7
:100FB0000646FF220025511C684606F09AFC0FE009
:100FC000FF2C13D970190746FFF7D9FEFF223846C8
:100FD00001326946FFF7E7FEFF3C013CFF35013572
:100FE000002CEDD10920000341B0F0BD002CF9D058
:100FF00070190446FFF7C3FEFF22204601326946FE
:10100000FFF7D1FEEEE7F0B50E461546C1B2421A23
:10101000C1B00092FF220132541A01A9C0B20F18C8
:10102000AC4210D3144601A8009906F050FC384693
:101030002A46314606F04BFC0098FFF7A0FE2246F8
:1010400001A9009847E0FF22013201A8009906F0AB
:101050003EFC38462246314606F039FC0098FFF740
:101060008EFEFF22013201A90098FFF79CFE274661
:10107000EC1B009DFF35013516E0FF2C19D9FF222E
:10108000F119013201A806F022FC2846FFF777FE8D
:10109000FF22013201A92846FFF785FEFF3CFF35FC
:1010A000013C0135FF370137002CE6D10920000350
:1010B0009AE7FF220132294601A806F008FCF1193F
:1010C000224601A806F003FC2846FFF758FEFF223F
:1010D000013201A92846FFF766FEE7E710B561482F
:1010E0000168012212041143016060485E490160F9
:1010F000016901231943016159490A681C0322430C
:101100000A607D2189018161002181628168194322
:10111000816010BD5548C16801221143C160016959
:101120009143016111034E4A8032116000218162B6
:101130004169490849004161704710B54C48484C25
:1011400001784A4880340022022902D001290FD0B8
:101150001BE0C368FF2101310B43C36003698B436C
:1011600003614B012360026343698B4343610CE0DD
:10117000C16801231943C1600169994301611903E1
:10118000216082624169994341613A4802703A485C
:10119000026010BDF0B5374B00221A70364802606D
:1011A00033480126017836042F4F30482C4C012556
:1011B000022918D0012915D12A4909683143294E3D
:1011C0003160076001692943016121682E033143C1
:1011D00021607D218901816182628168294381606A
:1011E00002201870F0BD1F49096831431D4E31605F
:1011F00047600169FF2601363143016121687701AB
:10120000394321607D218901016202638168314394
:1012100081601D70F0BD1848006880B2704710B53D
:1012200001F018FB10BD10B501F02BFB10BDF8B597
:1012300005460024114E124F0AE03078C32802D12F
:1012400038785A2806D07D20C00002F0A1F9641C2D
:10125000AC42F2D3F8BD000000800031E000E28033
:10126000E000E10000E801000006010000E80700DE
:10127000008004D0008000390080004400800030ED
:101280000080002FFB49FF2008707047FFB5FA4F20
:1012900087B078681C4615460E4680473868076850
:1012A000F6480088022804D1F4484030418C491C9B
:1012B0004184700704D52146284601F040F90446D0
:1012C000B00710D523462A463146079801F09EF90B
:1012D000002C00D104ADE94928190822523106F04A
:1012E000F6FA0834A4B2E44801684968A94209D072
:1012F000002105E003686A5C5B685A54491C89B2A6
:10130000A142F7D3A41D3C800799B970FE70054631
:101310000068A968406888472A6890680188408802
:101320000B0A09020B43010A000201439CB28FB26F
:10133000B00706D5D1680822684606F0C8FA083C0E
:10134000A4B2062C1CD9A41F1098A1B2002813D057
:10135000002006E02A68D268135C109A1354401CDF
:1013600080B28842F6D3700706D5080704D1A1B22F
:10137000109801F020F901461198002800D0018052
:1013800038460BB0F0BDFFB5BC4883B000880D9F58
:101390000C9D1C461646022809D0B7484068804775
:1013A000B548002C0068016815D0601E0BE0049958
:1013B000062211433246039801970095FFF766FF16
:1013C00007B0F0BD401EAC4A00041268000C526821
:1013D000335C1354F6D1A41D0C80039888700498D4
:1013E000A54CC8702068A16840688847206882685A
:1013F0001088010A00020143508889B2020A0002E3
:10140000024390B2062901D3891F00E000218AB26D
:10141000002D09D0002105E02368DB685B5C6B547C
:10142000491C89B29142F7D3002FC9D03A80C7E74F
:101430001CB593488721017010214170882181706B
:10144000002000900146019003238D4A0920FFF7F8
:101450009AFF0446C82002F09BF80920000384424A
:1014600003D08449A020087020461CBD1CB58449C7
:10147000872008700020487088700A460090014656
:10148000019003230920FFF77EFF0446C82002F0E5
:101490007FF809200003844202D07649B820087002
:1014A00020461CBDFEB5764D87272F7080206870C2
:1014B0008820A8700024009403232A46214609208E
:1014C0000194FFF760FF06466E48FFF7B0FE092063
:1014D0000003864204D06748B62101703046FEBD45
:1014E0002F706C70AC7000940323654A00210920B2
:1014F0000194FFF748FF0446C82002F049F809208C
:101500000003844202D05B48B72101702046FEBD33
:10151000FEB55B4D87262E7068700024AC70009479
:1015200003232A46214609200194FFF72CFF074692
:10153000C82002F02DF809200003874204D04D484E
:10154000B42101703846FEBD7D20C000FFF76FFE5C
:101550002E706C70AC7000940323494A002109205E
:101560000194FFF710FF0446C82002F011F809208B
:101570000003844202D03F48B52101702046FEBDE1
:10158000FEB53F4D87262E70012068700024AC7098
:10159000009403232A46214609200194FFF7F3FE15
:1015A0000746C82001F0F4FF09200003874204D059
:1015B0003048B12101703846FEBDFF20F530FFF7FD
:1015C00036FE2E706C70AC70009403232C4A002100
:1015D00009200194FFF7D7FE0446C82001F0D8FF88
:1015E00009200003844202D02248B2210170204623
:1015F000FEBD1CB522488721017010214170882151
:101600008170002000900146019003231C4A0920AC
:10161000FFF7B9FE0446C82001F0BAFF0920000315
:10162000844202D01349B020087020461CBDFEB58C
:101630000746012812D0C820114D0021287002A8A9
:10164000009001232A4601910820FFF79CFE0926FD
:101650003603084CB04203D0B92139E0C620EBE78D
:1016600068460089010A0002014364290CD2304611
:10167000FEBD00000080000C00800AD0008006FE45
:10168000008006D4000005DC872028706F700027DA
:10169000AF70009703238A4A394609200197FFF764
:1016A00072FEB04201D0BA2112E07D20C000FFF7E7
:1016B000BEFD872028706F70AF7000970323804AAB
:1016C000002109200197FFF75EFEB042D0D0BB2178
:1016D0002170CDE770B5092424030225794A03005F
:1016E00006F066FA0D41080B101324263337413AF1
:1016F0003D434100FFF79CFE70BD00210846FFF707
:101700008EFD30E0FFF7CEFE70BD0021042310787F
:101710001843107000E030BF10788008FBD11078BB
:1017200068401070491C1029F1D31CE001200DE025
:10173000107820210843107000E030BF1078800836
:10174000FBD11078684010700DE00220FFF7E0FE3A
:1017500070BDFFF715FF70BDFFF788FE70BDFFF786
:10176000B0FBFFF760FD204670BDFFF742FF70BD84
:1017700010B500210420FFF7ADFF534C2046FFF7C2
:1017800056FD00210620FFF7A5FF2046FFF74FFD7D
:1017900000210620FFF79EFF2046FFF748FD0021AD
:1017A0000620FFF797FF2046FFF741FD00210620A6
:1017B000FFF790FF2046FFF73AFD00210620FFF7D4
:1017C00089FF2046FFF733FD00210620FFF782FF47
:1017D00000210420FFF77EFF2046FFF728FD0021AF
:1017E0000620FFF777FF2046FFF721FD00210620A6
:1017F000FFF770FF2046FFF71AFD00210620FFF7D4
:1018000069FF2046FFF713FD00210620FFF762FF66
:101810002046FFF70CFD00210620FFF75BFF204666
:10182000FFF705FD00210620FFF754FF2046FFF7D4
:10183000FEFC00210B20FFF74DFF10BD30B5234CFF
:1018400022689568D3688A1D2A70002203E0855CAF
:101850009D54521C92B28A42F9D32068C268511832
:10186000C16030BD30B5194C8D1D23689A68DB68A6
:101870001570002595706325D570002203E0855C06
:101880009D54521C92B28A42F9D32068C268511802
:10189000C16030BD30B50D4C23689A68DB6815789F
:1018A0006D181570002203E0855C9D54521C92B2A5
:1018B0008A42F9D32068C2685118C16030BD000067
:1018C000008006D40080003100000BB800800AD0F0
:1018D000704710B5FC48012202704270428000211E
:1018E0000171417182710223C37106240472417235
:1018F0008172C272140201730461F44A846142610C
:1019000003844162816210BDFEB51F4615460C4638
:10191000064600F0F5FE014668083A4683180020A6
:101920006D462881002E06D0012E15D0022E16D02D
:10193000E74C2046FEBD2078002800D00220107021
:1019400002A80093019001230020FFF71CFD04462C
:10195000C82001F01DFEECE72078002801D003200C
:10196000EDE70120EBE71CB50C4600F0C9FE01468F
:10197000002000900346019022460120FFF703FD5E
:101980001CBDFEB515460C46074600F0B9FE0646DE
:1019900000F0B9FE224600216C46218103467808FA
:1019A000801802A90191009031460420FFF7EBFC5A
:1019B000002D02D0694609892980FEBD7CB51546F7
:1019C0000E46002400F09CFE01463570C148009090
:1019D0003246012301940220FFF7D5FC7CBD09208B
:1019E00000037047092000037047FEB51C461746E8
:1019F0000D46064600F084FE014668083A46801807
:101A000002903E7002A80090012301944520FFF748
:101A1000BAFCFEBD7CB51446054600F071FE0646D4
:101A20002570280A607005214903A848FFF7BDFA10
:101A30000F218902A848FFF7B8FA00200090019012
:101A40000223224631461120FFF79DFC7CBD1CB5C8
:101A50000C4600F055FE0146002000900346019020
:101A600022463120FFF78FFC1CBD7CB5079D00F09E
:101A700047FE044600F047FE034600200090019018
:101A80002A4621463220FFF77EFC7CBD7CB50D4600
:101A900000F036FE044600F036FE034600200090BB
:101AA00001902A4621463320FFF76DFC7CBD7CB5B2
:101AB000154600F025FE044600F025FE03460020F2
:101AC000009001902A4621463420FFF75CFC7CBD43
:101AD0001CB50C4600F014FE0146002000900346A1
:101AE000019022463520FFF74EFC1CBDFEB5154681
:101AF0000C46074600F004FE064600F004FE2246AF
:101B000000216C46218103467808801802A90191C2
:101B1000009031461820FFF736FC002D02D06946B0
:101B200009892980FEBD0920000370477CB50D4658
:101B300000F0E6FD044600F0E6FD034600200090BC
:101B400001902A4621462A20FFF71DFC7CBD7FB567
:101B50001546044600F0D4FD2668E268A1680296A6
:101B60002469030700090394052400901B0F0194C6
:101B700002A802F074FA00212970697004460091ED
:101B800002232A4655200191FFF7FDFB204604B0B1
:101B900070BD7FB51546044600F0B2FD2668E268C8
:101BA000A1680296246903070009039405240090A4
:101BB0001B0F019402A802F09EF9002129706970A0
:101BC0000446009102232A4655200191FFF7DBFBD2
:101BD0002046DCE7F0B587B01E461546044600F007
:101BE0008FFD01070309090F30078C463709266866
:101BF000E268A168049624690594000F0524009307
:101C0000019002970394634604A802F015F900219D
:101C1000297069700446009102232A4655200191DB
:101C2000FFF7B1FB204607B0F0BDF0B58FB0154609
:101C30000746159E00F064FD3C68083786CF0D9777
:101C400003070C94149F0009052400901B0F0197B3
:101C5000029603940CA802F001FC204E0446306862
:101C60002022816804A805F032FE002129706970E5
:101C7000009102232A4655200191FFF784FB30682A
:101C80002022806804A905F022FE20460FB0F0BD96
:101C9000FFB583B003200C9F002410700925164661
:101CA0002D0300940123214620460194FFF76BFB8E
:101CB000A842B8D1019400973246069B0499039834
:101CC000FFF7B3FFAFE7000000800A8000B010000C
:101CD00000006A8A00801D0000B0B20000800AD0B7
:101CE00009210903002804D0012802D0022800D0CD
:101CF0008149084670470920000370470920000306
:101D000070470920000370477CB50C4600F0F8FCD2
:101D100005460121B12089020004FFF746F90020A1
:101D2000009003460190224629462120FFF72BFB15
:101D30000446C82001F02CFC20467CBDFEB51D46A3
:101D400014460E46074600F0DBFC014660082A46B2
:101D5000841800206B4618812F7002A8019001237F
:101D600000940820FFF70FFB054620883080C8202C
:101D700001F00EFC2846FEBD7CB51E460C4605460D
:101D800000F0BEFC014635707470200AB07000206F
:101D900000900190324603230920FFF7F4FA04462D
:101DA000C82001F0F5FB20467CBD1CB50C4600F0B8
:101DB000A7FC0146002000900346019022460C201B
:101DC000FFF7E1FA0446C82001F0E2FB20461CBD03
:101DD000FEB515460C46074600F092FC064600F09C
:101DE00092FC224600216C46218103467808801827
:101DF00002A90191009031465020FFF7C4FA002D4E
:101E000002D0694609892980FEBD7CB50D4600F0E7
:101E100077FC044600F077FC034600200090019018
:101E20002A4621465220FFF7AEFA0446C82001F0A8
:101E3000AFFB20467CBDF0B5092685B015460C46A3
:101E40000746360300F05CFC7808041904222B498D
:101E5000204605F03CFD2A4800782071684601F0D4
:101E6000E3FD6A46508890819188D181012060719C
:101E7000127BA2716A46527BE2712172090A0A2022
:101E80006172002D00D02880304605B0F0BD3EB50F
:101E900014460A4600216B4619814008801802A9A1
:101EA00001910090032300211220FFF76CFA0546F0
:101EB000002C02D0684600892080C82001F068FB11
:101EC00028463EBD38B50B0784680A09C068002162
:101ED000009101461B0F204602F01DFB38BD092072
:101EE0000003704709200003704709200003704772
:101EF000092000037047000000006A8100007D781F
:101F000000007D7CF84A0020014640311154401CFD
:101F1000C0B21028F8D37047F3490120103108806F
:101F200070470020F14A55211154401CC0B20828C6
:101F3000FAD37047ED490120083102010B1812183D
:101F4000203B401CC0B2DA770828F6D9704700B5AC
:101F5000FFF7D8FFE449012010310880FFF7E1FFC7
:101F6000FFF7E8FF00BD38B50446002000906B463F
:101F7000012005F084FE0099C9432170080A6070B1
:101F8000002038BDFEB500256946D94C0D81B1262B
:101F900060683604804720684068044600F087FB8C
:101FA0002046303000F098FB5022214602A8FFF76F
:101FB000DAFF204669464030097A01746946497A59
:101FC0004174FF27013739463046FEF7EEFF3946A8
:101FD000C848FEF7EAFF582221463046FFF713F8BB
:101FE00009263603B04213D10822C049C248FFF780
:101FF0000AF8B0420CD10095522322460021272036
:102000000195FFF7C0F90446C82001F0C1FA204647
:10201000FEBD0068401C00D001207047F0B595B0AF
:1020200000270897099768460A970777AE4EB124AC
:10203000B0482404523608AA1390013238460101F0
:10204000091811311154401C80B20828F7D30BA88D
:102050000090012307AA002101972420FFF793F99C
:102060000546C82001F094FA09200003854202D0F9
:10207000284615B0F0BD01256846057700200EA959
:102080000091019001462B4607AA2420FFF77BF917
:102090000746C82001F07CFA09200003874201D0DE
:1020A0003846E6E702A800210090092308AA01911A
:1020B0002520FFF768F90090C82001F069FA09218E
:1020C000009809038842D4D120465830FFF7A1FF79
:1020D000024613985830FFF79CFF034610461843FA
:1020E0000CD00021C80000196030FFF792FF0028D3
:1020F00006D0491CC9B21029F4D303E07F48B8E7E1
:10210000102902D37D48401CB3E700271398FC0038
:1021100020186030FFF77DFF002804D07F1CFFB23D
:10212000102FF3D301E0102F02D37448801CA0E7D6
:1021300068466D4C007E5034012804D0002A0FD030
:1021400000290AD10CE0002A01D0002905D0002B7B
:1021500001D0002F08D0002A06D00020A08404E07F
:10216000002BF8D0002FF6D0A5845F4870300272A3
:1021700043728171C771002008A90A18527832543D
:10218000401C80B20828F8D3002002A90A5C33184A
:10219000401C80B21A720828F8D300200BAB325CC6
:1021A0001F5C7A403254401C80B21028F7D30126BD
:1021B000A08C002830D04F484B490746103102F020
:1021C0002EFB4949384610301031074602F031FBEA
:1021D00045493846103102F037FB43490FA810310A
:1021E00002F03DFB00200FA902AB1A18127A0F5C17
:1021F000BA4203D1401C80B20828F6D3082814D074
:10220000002E0FD0A08C38496840A0847831405C03
:10221000002804D00026CBE7B1200004CCE73748E3
:10222000153026E73548401D23E72F48103005803C
:1022300000981EE7F3B587B00446002069462A4F90
:1022400008815037B98CB12000042A4E002921D0D2
:102250003546064629461022203103A805F037FBF3
:10226000FF2101313046FEF7A0FE1F48B98C7630C1
:10227000085C1E49C006000E28180822083160308C
:10228000FEF7C1FE09252D03A84205D01B48801D7D
:1022900009B0F0BD0546DDE7204600F008FA20460B
:1022A0003030019000F018FA5022214602A8FFF7C2
:1022B0005AFE204640306946097A01746946497AD7
:1022C00041740746582221463046FEF79CFEA8423C
:1022D00007D13046082205495830FEF794FEA8423F
:1022E0000ED00648C01DD3E7008006EE0080001423
:1022F00000800AD000B1020000B10058000065045F
:10230000102633460022214603A8009602F090F9D9
:1023100010230022E11803A8009602F089F9214653
:1023200010230022203103A8009602F081F920201A
:1023300000901023002203A8019902F079F9684661
:10234000007A38746846407A7874002700975223E0
:102350002246062127200197FEF798FF0646C8204F
:1023600001F016F9AE4201D0304691E7089820708E
:10237000009701232246062128200197FEF786FFB9
:102380000446C82001F004F9204681E700B58DB06D
:10239000684600F08CF9B120302269460004FEF74F
:1023A00032FE0DB000BDFEB500256946D14E0D814F
:1023B000706880473068B1214468302209042046A3
:1023C00005F085FA2046303000F086F9502221468B
:1023D00002A8FFF7C8FD204669464030097A01741B
:1023E0006946497A4174306852234268C2480021E4
:1023F0000260009527200195FEF7C5FF0446C8201E
:1024000001F0C6F82046FEBD70B5BC4C8EB000256C
:10241000204665841021123005F072FA2C2102A8A2
:1024200005F06EFA2146403902A802F024FA012094
:1024300060840095082302AA062126200195FEF754
:1024400025FF0646C82001F0A3F8092000038642B4
:1024500004D10220214640390880658430460EB000
:1024600070BD10B543180022501E5B1E8A4206DA6A
:102470001C78802C03D0002C05D1521CF5E7102AC3
:1024800001DA881A401E10BD70B586B00D460646AA
:10249000002A17D0AB1880201870521C90B25B1C19
:1024A000010700D00121002902D0000900011030ED
:1024B00084B20020002908D02919994205D9187042
:1024C0005B1CFAE7002006B070BD019002900390FB
:1024D0000490102003460090002201A9304602F02B
:1024E000A7F8102301AA29463046009402F0A0F86C
:1024F0002046E8E770B586B014000E4605461CD0AD
:102500000020019002900390049080206946087199
:10251000102003460090002201A9284602F088F806
:10252000102301AA31462846009402F0F8F821460B
:102530003046FFF796FF80B2C5E70020C3E770B5CD
:1025400086B00446002917D062188020491C1070FC
:102550008BB2521C180700D00120002802D01B09A2
:102560001B0110339DB20023002807D06019904250
:1025700004D91370521CFAE70020A4E75F480193C6
:10258000029303930493408C6A46010A9174D074B9
:1025900010205A4E0346403E0090002201A9B01C74
:1025A00002F046F8102301AA2146B01C009502F063
:1025B0003FF8284687E770B586B00C00054623D063
:1025C000002101910291039180206A4604911071CB
:1025D0004A484A4E418C403E080A9074D1741020FB
:1025E00003460090002201A9B01C02F021F810233C
:1025F00001AA2946B01C009402F091F82146284611
:10260000FFF72FFF80B25EE700205CE7FFB51546BD
:102610003A4A8DB0102612321F4611461C460096CB
:10262000403901960C37002306A80B920A9102F05C
:1026300041F8842069460872002048720D9888721B
:102640000E98C872380A0F734873002C05D002A97F
:102650000A2C12D20620A41D09E0062002AB00902D
:1026600009E02A18203A927E0A54401C80B2A04207
:10267000F7D30B46009406AA13E006202A18203A46
:10268000927E0A54401C80B21028F7D30096102383
:1026900006AA0A9801F0CCFF0A3C2B460A3302AA8C
:1026A00000940A990B9802F04DF911B0F0BD10B5E5
:1026B000124904461022503905F009F90F49102239
:1026C0005039A01805F003F90C4920461022503962
:1026D000203005F0FCF810BD10B508490446102262
:1026E000503905F0F4F8054910225039A01805F0CA
:1026F000EEF810BD00800AD0008000100080073E78
:10270000F84840787047F748807870470120C00645
:102710007047FF20013070470020F34A01461154F2
:10272000401C2028FBD3F04870470020ED4A0146AA
:10273000D21C1154401C0828FBD3EA48C01C704727
:10274000F8B5EA4F05463868144680680E460028FA
:1027500005D178688047396806208968087038682C
:1027600000218268107851703A68926895703B68D1
:102770002A0A9B68DA703B68DD4A9B6812781A71F6
:102780003A689268517106E03B68725C45189B6834
:10279000491C5A55C9B2A142F6D3002C03D039685E
:1027A000001989680870F8BDF8B5D04E0746706802
:1027B00014460D46804731680020896848703168AA
:1027C00089688F703268390A9268002CD17032683B
:1027D000C7499268097811713168896848710ED0CB
:1027E0003168A01D89680870002005E031682A5C06
:1027F0008B68811D5A54401CA042F7DBF8BD31683C
:10280000062089680870F8BD3EB5BAA000680025AA
:1028100002900095032302AA294601950920FEF79C
:10282000B2FD0446C82000F0B3FE09200003844234
:102830000ED18320694608720095012302AA002167
:1028400002200195FEF79FFD0446C82000F0A0FE7F
:1028500020463EBD10B5A84801680122120411436C
:102860000160A748A549016001220261A5490B68E2
:10287000140323430B60A4498161002181628260BB
:1028800010BD01209F490003803108609C484169C8
:102890004908490041610121C160704770B5044693
:1028A00000689049C2784A70007988706068052590
:1028B0000078284001F0ABF86068007801462840B5
:1028C00002D0012800D00220904A89071278C90F4F
:1028D0008A4201D08E4870BDFF228E4B01328B4957
:1028E000FFF712F870BDF1B5A4B050228A490AA8CA
:1028F00004F0EDFF8948249C00902368794AD87839
:102900000590507019799170824D9B788035002028
:102910000A4601950493452B6FD029DC212B6DD0FD
:1029200017DC092B6BD009DC1846030005F040F9D1
:1029300009688BA05A915A5A5ABB5A00112B75D06C
:1029400002DC0C2B4ED1C7E0122B70D0182B49D1D2
:10295000EFE118462538030005F02AF91174747464
:102960004444E9444444444444E8E7E6E5E444009C
:10297000012503272D036A4EFF028C2B74D018DC2F
:10298000842BFBD00CDC702B6FD004DC502B6DD073
:10299000522B27D143E2712B69D0812B22D19EE1AA
:1029A000872B79D0882B78D08A2B77D08B2B19D195
:1029B00032E1EB2B73D00CDCDD2B71D004DC8E2BE1
:1029C0006FD08F2B0ED1A3E1E02B6BD0EA2B09D176
:1029D00038E21EAAF12B6FD0F22B6ED0F32B6DD004
:1029E000F42B6CD04B48009006AA01920B4662680B
:1029F00005990498FEF7C7FC20E0F8E119E25FE0D2
:102A0000606805250078284001F001F860680078CA
:102A10000146284002D0012800D002203B4A890705
:102A20001278C90F8A4203D0394807E080E027E0D6
:102A3000FF22384B01323549FEF766FF002211466E
:102A4000FFF77EFE0EE2FF2032490130FEF78BFFDA
:102A5000F4E73048616804F03AFFFF206A462D49E8
:102A60000130FEF78EFF7FE1E8E06CE0C8E17BE03B
:102A7000606828490278FF200130FEF79FFFDDE7FC
:102A800003222448616804F022FFFF206A4621499E
:102A90000130FFF7FCF967E198E00CE1A8E0D4E130
:102AA000E5E15BE1CBE16068FF220078194B013280
:102AB0006946FFF743F9F6E1F8E113E228E241E263
:102AC0006168144B08784A78897809021143FF221B
:102AD0000132FFF751F9B1E7FF200E490130FFF74E
:102AE00064F9ABE7008000240080076800800AD00A
:102AF00000800049280A000000E8010000060102E9
:102B000000E80700E000E100000F424000800A807A
:102B100000006A8100800C00000084A00000696948
:102B200000801D005DE14CE140E128E121E10BE185
:102B30006068FA4A0178407800020843FF210131B9
:102B4000FEF768FF7AE709242403F5482946FEF7D3
:102B50002CFA002211462046FFF7F2FDF148002131
:102B60004170062101707DE16068017842780906B4
:102B7000120451188278C078120251184518EA4898
:102B8000EA492818884202D3D520C00156E7E84810
:102B900040688047E34900228A709020C8706068CE
:102BA0000078087160684078487160688078887142
:102BB0006068C078C87108202B780B54401C6D1CCD
:102BC0008828F9DB4A70882008704BE1D6480496C3
:102BD00040420690052040030790D648FF21089008
:102BE0000597CE4A0131099504A8FEF7B0FF91E19F
:102BF000CD48049640420690052040030790CD48FA
:102C00000597099508906068FF210378C34A013150
:102C100004A8FEF7DFFF7DE1C3480496404206901A
:102C2000052040030790C348FF2108900597BB4A41
:102C30000131099504A8FEF7ACFF6BE160684178AB
:102C400000918178C0780002084301902046FFF788
:102C500025FE0921090304468842C8D1FFF7DEF9A1
:102C60000921090388420ED1FFF7CEFB0921090390
:102C7000884208D1B0484178B048FFF7DBFA092113
:102C80000903884204D0002211462046FFF78CFD3C
:102C9000A548049640420690052040030790A548A9
:102CA000059709950890FF2122AB9C4A013104A8A1
:102CB000FEF7BBFFC2E6606802784178807805972E
:102CC00000020843984904964942069105214903A8
:102CD000079198490995009208910190E3E7964978
:102CE00016224A7090490120494206910521490364
:102CF0000791904908910021059701910496009051
:102D00000102099522AB854A04A8FEF7C1FF95E6AA
:102D10008548049640420690052040030790854868
:102D20000597099508906068017804A8FFF7CAF82C
:102D3000F0E07A48616804F0CAFDFF206A467749EE
:102D40000130FEF7D3FE0FE07448616804F0BFFD68
:102D5000FF2072490130FEF7E9FE6FE6FF206A4668
:102D60006E490130FFF767F869460988CAB20199D0
:102D700076E0FF2069490130FEF769FE5EE6012634
:102D8000F6060B46F514FFF7C7FC616807460C789A
:102D90001A46624804F09BFD604801903B462A4673
:102DA000314600952046FEF760FE47E65B486168C5
:102DB00004F08DFDFF20002258490130FEF766FE29
:102DC0003CE6FFF7B2FC05465B48616882785348F1
:102DD00004F07DFDFF21514A01312846FEF767FED0
:102DE0002CE6FF204D490130FEF772FE26E66068B2
:102DF000FF2100786B46494A0131FEF7F6FD1DE6DA
:102E00004E48616804F063FDA1206A464B49000109
:102E1000FEF7DEFF69460988CAB2494920E03F480B
:102E2000616804F054FDFF203C490130FEF7EDFFDE
:102E300004E6FF2039490130FEF766FFFEE5FFF7A3
:102E4000A1F867E0FFF7EAF864E000213B48FFF7EC
:102E5000F1F909210903884204D0002211460098A3
:102E6000FFF7A2FC32480068806825B0F0BD002062
:102E7000C04369460880FFF7D1F809242403A04223
:102E800001D001210DE0FFF7BFFAA04201D00221DD
:102E900007E0294841782948FFF7CCF9A04202D041
:102EA00003216A46118002226946D9E700210AAC53
:102EB000080110304018401C5054531818726054C8
:102EC00063181872187418762033187018721874F2
:102ED000491C18760829EBDB402221461EA8FFF783
:102EE000D3FA0FE00020010110310918491C1154D8
:102EF0001318401C19720828F5DB50220AA91EA8D5
:102F0000FFF7F8FA01460920CAB200030AA9A7E7A9
:102F1000FFF77AFC00221146A2E7000000800C00B7
:102F200000B0B20000800B00FF4FF0000001000174
:102F300000800AD000800D000080002400801D0069
:102F40000080220861680A784B7812061B049A18E0
:102F50008B78C9781B029A18891809686B460A0E83
:102F60001A720A0C5A720A0A9A72D972042202A9B7
:102F700076E74CA003C8A2B009900A914BA0006864
:102F80001D904BA003C80D900E914BA003C80F904D
:102F900010914BA003C8119012914BA003C81A9135
:102FA00019904BA000681E904AA000681F904AA08C
:102FB0000068209049A00068029049A00068219014
:102FC00009A80B901DA80C900DA813900FA81590A0
:102FD00011A8179000241EA91C9119A818941FA9C4
:102FE00004911494169420A91B90039005900691C7
:102FF0000790009002A921A808910190FDF72EFFEB
:1030000000F0B1FA374840688047FEF762FC684636
:10301000FFF769FC408890280ED03349884238D1A8
:1030200017A8FFF760FC4088902832D16846FFF768
:103030005AFC408890282CD10220FEF7F8F80BA803
:10304000FFF751FC408890281DD11BA8FFF74BFCCF
:103050004088902817D103A8FFF745FC40889028A6
:1030600011D105A8FFF73FFC408890280BD115A887
:10307000FFF739FC4088902805D113A8FFF733FCEF
:10308000408890280BD020206946487207A8FFF797
:103090002AFC164801780129FCD10470FAE71020B7
:1030A000F2E70000005400000100000006000000EC
:1030B000005401000000000000548B2600000000B6
:1030C0000054DD000000000000540900030000006F
:1030D0002000000023D280000710270087208800EE
:1030E0002B00000000800AD00000866900800024C8
:1030F000FC49FB4808608860801D4860C8607047D4
:10310000F94900200870F94988600871C860487161
:10311000086188717047F8B5F24CF54825460C3DBA
:1031200086892F78284641882246406812683B00ED
:1031300004F03EFD09AB06281A3D50567497B300C3
:10314000118810460A0A09020A43921F6A80002366
:103150001A4606210096FDF720FF6888002801D056
:10316000022022E0032020E01146204600F0DCFB94
:1031700020680078062801D1062016E061680870F2
:10318000012012E01146204600F0CEFB20680078B6
:103190000628F3D1698801204002814201D8052028
:1031A00000E004202870606857E028706DE001247A
:1031B000002364021A4621460096FDF7EEFE686879
:1031C000001968606888001B80B26880A0425CD8E3
:1031D0000520EAE700231A460096FDF7DEFECBE75E
:1031E0000096002106230846A268FDF7D6FE0421BA
:1031F000A06800F0F5FB80B2010A00020143A0685C
:103200008288511A0904090C06D10088002803D0CD
:10321000062028720720C8E71520FAE7E168287A17
:1032200008700026E06833464670B148324680890F
:1032300000900221E068FDF7B0FE287A15280ED034
:10324000A0680088010A00020143891F0804000CDD
:10325000688004D008202870E068686015E02E704F
:1032600013E001235B029942009610D90246002127
:103270000846FDF792FE6868FF30FF300230686054
:103280006888FF38FF38023868802878F8BD0B4618
:10329000024600210846FDF780FE002085E7E92070
:1032A00000040168072212049143032212048918C2
:1032B0000160704710B500218E4804F0CCFC10BDB1
:1032C00038B58A4C87492279012A02D1E268521C1A
:1032D000E2602278002A0CD0012A09D1022807D105
:1032E00001210020FDF714FEFFF7D9FF0020207018
:1032F00038BD0128FCD1087D00280DD0FF280BD057
:10330000487D012808D069460120FDF712FE684675
:103310000078002803D007E0FFF7CCFF38BD7148E4
:103320000C380078062802D0FFF7C4FF38BD012012
:10333000207000210846FDF7EBFD38BD6B490120E8
:10334000C870704770B5694C0325617801260B0081
:1033500004F02EFC050414222A3D40000C2839D12B
:103360006548FDF714FE012103220846FDF7EFFD35
:1033700000210846FDF7CCFD66702BE00A2829D114
:10338000012103220846FDF7E2FD01210020FDF79F
:10339000BFFD022060701DE00B281BD151480C3886
:1033A0000670FFF7B8FE14E02178012902D00B283F
:1033B00006D00FE0FFF77EFF0220FFF781FF08E055
:1033C000FFF7A9FE002805D16070E67102E00A2827
:1033D00000D16570607870BD10B54848007802284B
:1033E00001D030BF10BD4648026881680368454C73
:1033F000234003608368444C2340FF33FF3304338E
:1034000083600368414C23400360414C00232361E7
:1034100030BF8160026010BD3E4B0021986A9A6AFD
:103420008009920980019201824203D0491CC9B2ED
:103430006429F3D37047F8B52A4C0146207DFF2854
:103440001FD0022620680027028828480771C7601D
:10345000012303712648921F00680568AD78112D7D
:1034600011D04775002A04D06068884201D004F06A
:103470002EFA2068C178C90707D0204600F05FFA0D
:1034800010E00026DEE74375ECE70188051D0A0A17
:1034900009020A4302800421206800F0A1FA287082
:1034A000000A6870114D0020E871E8700220687011
:1034B00020688078002800D10026207D012807D1CF
:1034C000FFF7AAFFAF218902884201D3FFF784FFEB
:1034D000022E21D06027FDF712FD06001ED020E04D
:1034E00000800B0000800794008000000080003402
:1034F00000800AD0008006080000333D008004D020
:1035000000E80100FF010002FFFFC0C0FE01000251
:10351000E000ED0000E807002027DCE73846FDF773
:1035200038FD002E02D0A06846801AE00024AC705E
:10353000012103220846FDF70AFD05E0FFF74CFFD5
:10354000A878002803D0AC700B20FFF7FBFEE879C9
:103550000028F3D0032200210120FDF7F8FC2C7194
:10356000EC600020F8BDFF480021016041608160EF
:10357000C1600161FF210175452141758175FA49DD
:103580000860FA484860FA488860FA4888817047BD
:1035900008B500210091814206D200BF00BF00BFE4
:1035A00000BF00BF491CF5E708BDE9200004016821
:1035B000C908C900491C01604168090909010931AC
:1035C0004160016807221204914301221204891804
:1035D000016041680F221204914341600168072293
:1035E00012029143FF310131016041680F22120242
:1035F000914305221202891841608168102211430B
:1036000081607047F8B500276424E9252D042868F7
:10361000C008C000401C286068680009000109302B
:1036200068602868072109048843012109044018BB
:10363000286068680F2109048843686028690009C8
:103640000001C01C286100206861CB49402008604F
:10365000CA490860A86810263043A860E868641E5C
:10366000C00702D0002C05D018E00A20FDF7DFFDCE
:10367000002CF3D1A968B143A9601420FFF788FF9B
:10368000A9683143A9601420FFF782FFE868C007EA
:1036900002D1641C322CEDD3302C20D8B84CA86851
:1036A0002246B043A860E868521EC00705D0142027
:1036B000FFF76EFF002AF6D111E0002A0FD0A868AC
:1036C0003043A860E868641EC00703D0002C06D011
:1036D0003846F8BD1420FFF75BFF002CF2D1A94853
:1036E000F8BDF0B500240D46994200D21D46002DCC
:1036F00019D0A54E366807277F053E43A24F3E608E
:103700000FE0002910D00678BE607E68F607FCD076
:10371000FE68002BF6B202D01670521C5B1E401CD5
:10372000641CAC42EDD3F0BD0026EDE7F0B5934E3E
:1037300008259648964C6B0180368F4F002925D07E
:103740003B60336021682943216092493D23114049
:103750009B04C9188C4B1960910003D51968042289
:1037600011431960E92109040A688B4C0240224385
:103770000A604A6802408920000202434A601868D1
:1037800001214903084318600020F0BD83490868FF
:103790002843086082490020086020684821884347
:1037A000206033603B60EFE77E4900B50843024686
:1037B00001210846FFF7BAFFE9200004416803220F
:1037C00092029143012292028918416000BD30B5F6
:1037D000E9221204106807252D030121A8430903DB
:1037E0004018106050680F210903884350609068AA
:1037F0000824A04390601E20FFF7CAFE9068204373
:1038000090601E20FFF7C4FE9068A043906010688F
:103810000321A84309034018106030BDF3B500240C
:103820008C4608004FD0E926360431680720000393
:103830008143012000030818306070680F210903DC
:1038400088437060B0680827B843B0601E20FFF757
:103850009FFEB0683843B0601E20FFF799FEB06845
:10386000B843B06016E000980022055D0720811A79
:10387000012088402842B06801D0384300E0B843B6
:10388000B0600320FFF784FE521CD2B2082AEDD3A9
:10389000641CE4B26445E6D3B068B843B0601E204F
:1038A000FFF776FEB0683843B0601E20FFF770FE69
:1038B000B068B843B060306807210903884303212A
:1038C000090340183060FCBDE920000401680722AC
:1038D00012039143012212038918016041680F22EB
:1038E000120391434160816808221143816070474F
:1038F000E920000401680722120391430322120306
:10390000891801607047E920000401680722120449
:103910009143012212048918016041680F221204A8
:10392000914341607047704708B50F480A46808947
:103930000021009001230846FDF72FFB08BDF8B5D4
:103940000446006804270188051D0A0A0B021A4371
:1039500002804618226800209080206800F040F81D
:10396000307021E00080079400800AD0000030F120
:103970000000343700001388E000E280E000E1003E
:10398000000027100000664100E90400FFF000FF7E
:1039900000E80100000380EB0003330000E80200B0
:1039A00000E0060060000007000A707022681188BD
:1039B000080A090208431080801C80B22168020AAC
:1039C00008800002216802430A803946206800F01E
:1039D00007F82870000A687009200003F8BD00008D
:1039E00010B500231A460EE01C0A1B021C43835C20
:1039F00063401C06240F5C40230363409CB22306F3
:103A0000DB0C6340521C8A42EEDB18B210BD024947
:103A1000096808757047000000800AD0FE49FF2041
:103A2000087009200003704710B50446012020707B
:103A3000A01C00F0E5FD0820A0710220E0710C2020
:103A40002072802060720920000310BDF3B5054686
:103A5000828CC469816983B00069FDF7D4FA0926B4
:103A60003603B04276D1ED4800270770012141703E
:103A70003946801C00F0CCFD3846E84F01901A37DB
:103A80000423E64A102100970620FDF77CFCB04293
:103A900001D0402278E0C820FFF77AFD0021DF48FE
:103AA00000F0B6FDDD480621801C00F0B1FD0020CD
:103AB000014601900423D94A00975020FDF763FC8A
:103AC00009210903884201D041225DE0C820FFF7A7
:103AD0005FFDD2481A30017940790002081886B299
:103AE00006271DE000F094FDCC48E021801C00F08A
:103AF0008FFD0020014601900423C84A0094502005
:103B0000FDF741FC09210903884201D042223BE034
:103B1000C820FFF73DFDE03EE037B6B2BFB2E0346B
:103B2000BE48E02E3946DDD800F072FD3146BB4E6E
:103B3000B01C00F06DFD00270423324639465020AA
:103B400001970094FDF71FFC09242403A04202D032
:103B5000432219E026E0C820FFF71AFD0621317044
:103B60000421701C03F0CCFEAC4E05231A36AB4A80
:103B70000021182001970096FDF705FC0499327882
:103B80000A70A04204D04422A3490A7005B0F0BDD7
:103B9000C820FFF7FDFCEA8CE9696869FDF733FA94
:103BA000A04201D09E48F1E72046EFE7F1B584B08E
:103BB000049800F06EFF002801DA9A48E6E70498BE
:103BC000049C4030407A0926934F944D36032034AC
:103BD000012837D1A17B0020012914D003212970AD
:103BE0000090019001232A4600210220FDF7CBFB23
:103BF0000090C820FFF7CCFC0098B04222D03020C3
:103C000038700098C2E753212970844901901A3115
:103C100000910123814A00210220FDF7B4FB0090AE
:103C2000C820FFF7B5FC0098B042E8D17B481A30B5
:103C3000017842780802104340BA322802D2387024
:103C40007948A3E701202870A07B012801D18120B9
:103C50002870724802A91A300191009001236F4A1E
:103C600010210520FDF78FFBB04201D0312168E023
:103C7000C820FFF78DFC00210824684800F0C8FC2C
:103C800066482146801C00F0C3FC644C02A81A342C
:103C900001900423614A002100945020FDF773FB3A
:103CA00009210903884203D169460989082901D0FD
:103CB000322146E0C820FFF76BFCE179A0790902C8
:103CC000401884B20498082644850498C5681FE00B
:103CD0005248E021801C00F09BFC31464F4800F028
:103CE00097FC02A8019004234C4A00210095502023
:103CF000FDF749FB09210903884201D0332120E067
:103D0000C820FFF745FCE03CE036A4B2B6B2E0358F
:103D1000E02CDDD83146414800F07AFC3F4821468E
:103D2000801C00F075FC02A8019004233B4A00218E
:103D300000955020FDF727FB09242403A04202D060
:103D40003421397022E7C820FFF722FC049800F0E4
:103D5000B2FE002803DA38703248401C16E72046CD
:103D600014E7F7B586B00025684605822B48082180
:103D70001A3003F0C5FD294F04A81A37002301901B
:103D80000295264A1946009703953020FDF7FBFA65
:103D900009242403204EA04201D0012122E0C820A2
:103DA000FFF7F6FB38796946087378794873F97933
:103DB000B879090240186946C88102A800F020FCC1
:103DC0001648FF2101704170024600950223002130
:103DD00011200195FDF7D7FAA04206D01349884279
:103DE00003D00221317009B0F0BDC820FFF7D0FB2D
:103DF000012149020798FDF7D8F8094D6D1EA04230
:103E000009D108990698FF39FF3900680239FDF792
:103E1000CCF8A0420ED00BE000800049008007AC37
:103E200000006502000063010000674700006A832C
:103E30002846D8E72046D6E7F0B5A1B00E46FF31B8
:103E4000FF310231289F1C460091299B0168019196
:103E5000406894460290269D279A08A84373002143
:103E600010A8817108A84274C77401228273C273BA
:103E700004748574092710A83F034172012D01D1F4
:103E8000012C29D03022314614A803F020FD6846C9
:103E9000FFF78CFEB8421DD113A96846FFF7D6FD87
:103EA000B84217D1E80008380019401EC0B24100DE
:103EB000401814A96D1E0D544018641E447010A9BA
:103EC000097B8170302214A93046FDF79CF8B84276
:103ED0000FD0F94821B0F0BD624631466846FFF781
:103EE00040FFB842F6D1FF22302114A803F001FDB3
:103EF000CDE73846EEE7FFB5A3B024992D9BFF31FF
:103F0000FF310231009101680191406802902C9CC0
:103F100008A94B73002010A9887108A92698487435
:103F2000CC7401258D7310A94D7268462499FFF752
:103F300018FF09263603B04201D060228AE0FF2232
:103F4000302116A803F0D5FC00210220FDF7C2FBAA
:103F5000B04201D061227DE008A8C5730125641C30
:103F6000149462E0022D09D102210420FDF7B2FB76
:103F700009210903884201D062226BE026980124BE
:103F8000401C139043E008A8047403278574684616
:103F9000FFF70CFE064609200003864206D0C748FC
:103FA000864203D07F1E3F063F0EF0D109273F0314
:103FB000BE4206D000210B20FDF78CFB304627B017
:103FC000F0BD15A96846FFF741FD0646B84203D08B
:103FD000BB4863210170EDE7E80008380019401E76
:103FE000C0B242008018691E16AA1154611E8018C2
:103FF000417010A9097D8170E1B20620FDF76AFBCE
:10400000B84201D0642225E0641C139864B2844253
:10401000B9DBE9B20920FDF75DFB092109038842FC
:1040200001D0652216E06D1C6DB21498854299DBB3
:10403000302216A92498FCF7E6FF09242403A042A5
:1040400001D09D48BBE700210B20FDF743FBA042B8
:1040500003D066229A490A70B1E72046AFE7FFB560
:10406000A3B024992D9BFF31FF31023100910168EB
:104070000191406802902C9D08A94B73002010A963
:10408000887108A926984874CD7401248C7310A9EE
:104090004C7268462499FFF764FE09263603B04245
:1040A00001D0102281E0FF22302116A803F021FC6C
:1040B00000210120FDF70EFB09210903884201D0F0
:1040C000112272E008A8C47301246D1C149571E0DC
:1040D000022C09D102210320FDF7FCFA0921090372
:1040E000884201D0122260E026980125401C1390DE
:1040F0004EE008A805740327847400210C20FDF706
:10410000E9FA6846FFF752FD064609200003864299
:1041100017D000210720FDF7DDFA092109038842A5
:1041200001D0132241E06548401E864201D030464E
:1041300045E77F1E3F063F0EDFD16149172008701B
:10414000F5E700210A20FDF7C5FA15A96846FFF733
:104150007DFC09263603B042EAD1E0000838401958
:10416000401EC0B242008018611E16AA1154691E7A
:104170008018417010A9097D817000210520FDF78C
:10418000A9FAB04201D015220FE06D1C13986DB250
:104190008542AEDB022C0BD100210820FDF79AFAF4
:1041A00009210903884203D0162245490A7006E70F
:1041B000641C64B2149884428ADB302216A92498C5
:1041C000FCF721FF09242403A04201D03A48F6E677
:1041D00000210A20FDF77EFAA04203D0384A1721B9
:1041E0001170ECE62046EAE6F0B5A1B006463022B2
:1041F0000CA803F06CFB334900204300401C18AAB4
:1042000080B2D1521028F8D3B28CB1693069FCF772
:10421000FAFE09210903884201D027485AE63046B0
:1042200000F024FCFCF7B6FF00216846017330461D
:104230003C300B90801C0990801C0890401C07901B
:10424000401C0690801C059024380490002069468C
:104250009AE06946097BC0004018C0B2B4694100C9
:1042600045180A900CA8405D0027FF287ED0052243
:104270001549164803F02BFB0CA828188178134821
:10428000124D417120A81A35019006230F4A1021C2
:1042900000950720FDF777F809210903884201D02E
:1042A00051224BE0C820FFF773F96978287809029A
:1042B000401885B22AE0000000006502000067484F
:1042C000008000490000FFFF00007D7D008007ACFA
:1042D00000F09EF9E021D04800F09AF920A8CE4ADB
:1042E00001900423921E002100945020FDF74BF80A
:1042F00009210903884201D052221FE0C820FFF79C
:1043000047F9E03DE037ADB2BFB2E034C348E02D3D
:104310003946DDD800F07CF92946BF4800F078F92D
:1043200020A801900423BD4A002100945020FDF7ED
:104330002AF809210903884203D05322B8490A7098
:10434000C8E5C820FFF724F96846017B049801748A
:104350006846017A04988174FCF75DFF0546304693
:1043600000F0A9FB0446FCF756FF00E009E0401B03
:1043700081B20A98420018A8101800F049F92F2CB1
:1043800040D06946087A401C08720498C17C68468F
:10439000007A814200D95CE76946087B401CC0B2C4
:1043A0000873082800D251E7FF20087001216846F1
:1043B000FDF758FA01216846FDF76CFA202118A88C
:1043C000FDF768FA304600F047FB02210B98FDF735
:1043D00061FA01210998FDF75DFA01210898FDF7BE
:1043E00059FA01210798FDF755FA02210698FDF7C1
:1043F00051FA01210598FDF74DFAFCF79EFE632066
:10440000000267E5012103A8FDF718FA012102A8BF
:10441000FDF740FA202118A8FDF73CFA304600F0DD
:104420001BFB02210B98FDF735FA01210998FDF7D6
:1044300031FA01210898FDF72DFA01210798FDF7BF
:1044400029FA02210698FDF725FA01210598FDF7C2
:1044500021FAFCF772FE092000033BE5F0B50C469B
:10446000E21D93B0FF32FA320092026801921B996A
:104470004068029008A80027417310A887717B1E2E
:104480006E461A46384641004118655CFF2D08D03B
:10449000954200DD625609194D789D4201DD0123E8
:1044A000CB56401C80B21028EDD35D48002A01DBBA
:1044B000002B02DA5521017004E05B1C2036737476
:1044C000521CF27408AAD17C527C12018918017026
:1044D00008AA17749774022191731998002800D0C4
:1044E000012010AA507208AAD1736846FFF75EFB3C
:1044F00009252D03A8420CD1032008A9C8734948F7
:104500006946C88621466846FFF76EFEA84200D17C
:10451000284613B0F0BDFFB593B01C98174600288D
:1045200005D0012869D0D520C00117B0F0BD7E1E8E
:1045300000251196022E5ED2302202A8139903F0B4
:10454000C6F90024F800083810900019C0B24100E4
:10455000471802A8C15DFF2939D03E186D1CEDB285
:10456000B1782E4800F054F80020009001460190E8
:1045700002232A4A1120FCF706FF09210903884279
:1045800006D02949884203D0254A02211170CCE780
:104590000120009011982246C1B20EA8169B00F08F
:1045A0003DFA0F990E980090019168468188009A13
:1045B00013981018FCF7F9FC09210903884201D06F
:1045C0001A48B2E7FF2002A9C8557070B070641C89
:1045D000E4B2082C01D21098B7E7002D0BD030229E
:1045E00002A91398FCF70FFD09210903884204D0A2
:1045F0000E48401C99E70C4897E70920000394E710
:104600000021017006214170FF217B3141807047FC
:104610000170090A41707047008007AE008007AC46
:104620000080004900001EDE00006A830000650172
:10463000FFB58BB0149815460F46009003F005FAAD
:104640003E46002D05D01022294601A8FBF78EFF1B
:1046500001AD009800240009099020E0002D25D02C
:1046600001200346009004200E9A0B9903F0FCF9F8
:104670001020009005AB32462946042003F0EBF9E8
:104680002001C019102205A9FBF770FF1022314646
:1046900001A8FBF76BFF641C099801AD1036A0421E
:1046A000DCD803F0CCF938460FB0F0BD0120002370
:1046B0000090D8E7FFB585B00F9F1C00164605D0C7
:1046C0001022194601A8FBF751FF01AC03F0BDF918
:1046D00000253F0919E0002C1DD001200346009061
:1046E00004200E9A069903F0BFF91020009032467C
:1046F00021460420059B03F0AEF9102201A805997C
:10470000FBF734FF6D1C01AC1036AF42E3D803F069
:1047100096F909B0F0BD012000230090E0E7FFB555
:104720008BB0149F0C981022C4192146203901A87F
:10473000103CFBF71BFF01A8099003F086F9002548
:104740003F092E467F1E20E00D98009600283DD0A0
:10475000012304200E9A0B9903F086F91020009093
:1047600005AB22460420099903F075F9102205A92A
:104770002046FBF7FBFE21461022203901A8103C01
:10478000FBF7F4FE01A86D1C0990AF42DCD81022A3
:1047900001A80D99FBF7EAFE0D980096002817D0A6
:1047A000012304200E9A0B9903F05EF9102000906B
:1047B00005AB04200C9A099903F04DF9102205A9C4
:1047C0000C98FBF7D3FE03F03AF96DE70023C0E73E
:1047D0000023E6E7F0B589B00E4600210E9F0C4697
:1047E00001AD6C54491C89B20B29FAD36946CE73CA
:1047F0000C744C748A740122CA7400215A5C6C18BF
:10480000491C89B222741029F8D320210091014655
:104810002B460022384600F095F809B0F0BD08B5E7
:104820008A1C0B460092423380220421FFF7D2FFFC
:1048300008BD08B50A4612320B4600924233802268
:104840000621FFF7C7FF08BD08B50A4622320B460E
:104850000092423380220721FFF7BCFF08BD38B524
:104860000C460B4600902046423340220021123075
:10487000FFF7B0FF38BD38B50C460B460090204618
:104880004233402201211230FFF7A4FF38BD10B59A
:1048900000230F228C5C64001C4384548B5CDB0976
:1048A000521EF7D510BD30B5002304E0C45CCD5CCA
:1048B0006C40C4545B1C9342F8DB30BD10B5102132
:1048C000203003F01DF810BD70B586B000240546F9
:1048D00010200E4603460090019402940394224651
:1048E00001A904943046FFF7A3FE69460420085648
:1048F0001022C60F01A92846FFF7C9FF872001949F
:104900000294039469460494C874002E04D01022C3
:1049100001A92846FFF7C7FF1022A8182946044618
:10492000FFF7B5FF00202856002804DA102201A95D
:104930002046FFF7B8FF28461021203002F0E0FFA4
:1049400006B070BDFFB593B01C9C0F212003090376
:104950004018050C27071E463F0F06A81499FFF7BD
:10496000B3FF0F21200309034018000C0001811937
:104970001039002F29D002A8C4193A4602F0A7FF27
:1049800080202070002006A900E02070641C8C426A
:10499000FBD310220AA902A8FFF785FF1024012DDE
:1049A0001AD02801103880B213AF009401900BCFB9
:1049B0003246FFF77FFE139B0094019402AA18462B
:1049C0001499FFF777FE17B0F0BD102202A802F08D
:1049D0007EFF102206A9DEE70094019413A80BC8FD
:1049E00002AAEEE7F8487047F0B50346FFF7FAFF72
:1049F0000446302500220026002706E09E5CA75CC6
:104A0000501CC2B2AA4200DB00E0F7E700BFBE4282
:104A100002D02920C043F0BD0020FCE7FCB5079C74
:104A20000E465E43B518012C07D1EE022703F61996
:104A30000096E6026F46BE8005E00026009601263D
:104A400036036F46BE80019F009E47600660FCBD36
:104A5000DE487047DE48704710B5044620463430C3
:104A600000F0D1F981B24220015310BD10B50446C7
:104A70001B21490160684018A061FF208130A0849B
:104A80002046343000F0C7F920463C3000F0B5F93C
:104A900010BD01464A689007800F02D00B20C0432A
:104AA0007047002A02D10C20C043F9E71046883035
:104AB000C8600020F4E7F0B589B0044600200890F3
:104AC00000212C2001554820015565E16668A76842
:104AD000002F03D10C20C04308905EE1002E03D1CB
:104AE0000C20C043089058E14620005D002803D008
:104AF0001720C043089050E130468830E168814279
:104B000003D01520C043089047E12068002807D053
:104B1000E0788007800F07D02020C04308903CE158
:104B20001F20C043089038E12F20005D022806D1E5
:104B3000E0680188A18782783E210A5500BF2F20B6
:104B4000005D012803D02F20005D02286CD12F20AA
:104B5000005D02280ED10497E068001D059004A8AE
:104B600002F010F903900398002803DC2720C043CB
:104B7000089012E10220079000252F20005D0128F7
:104B80003ED13021095D002905D030210A5D312157
:104B9000095D8A4203DD1821C9430891FDE03221F5
:104BA000095D002905D032210A5D3321095D8A4261
:104BB00003DD1821C9430891EFE00121079132215B
:104BC000095D491E3122125D51433022125D521E91
:104BD0008918CDB20122120321688918EA028818C7
:104BE000E168091DA161206103210902A184E16836
:104BF000E16103210902411861617649E18404E021
:104C0000A761206820617448A08430468830032161
:104C1000090240186F494018206202202085206A4E
:104C2000057007994170B8E02E20005D022803DD71
:104C30001A20C0430890B0E02F20005D03287DD1EA
:104C4000354620464630A8612D20005D0790079824
:104C50000F2802DD0F20079004E00798042801DAEE
:104C6000042007905821079848555B21079848551C
:104C70003120015D6C20415500215A204155012110
:104C80007E20415500215E2041556D2041551B205D
:104C90004001301828601B2040013018A8603046C1
:104CA0008830E8602868FF306130C17F6E20415550
:104CB0003220015D84204155002141553022105D94
:104CC0003222115D3122135D1A464A43121892B204
:104CD000069201210903206841180698C0020818AD
:104CE00005906E20405D05284CDB019705980290E9
:104CF00001A802F047F800900098002803DC272064
:104D0000C043089049E02068E8616F6327204001B4
:104D10003018686003210902059841186964002170
:104D20002C200155482001550020089022463C3295
:104D300021463431284601F07AFE00E02BE0049051
:104D400004985A281DDB5E20415D68460173582097
:104D5000415D6846007B814212DC5820405D694617
:104D6000097B88420CDC6846017B2C2001553220EF
:104D7000005D401CC1B2482001552F2008900CE076
:104D800000BF00BF4620005D002803D01720C043AD
:104D9000089002E000BF00E098E600BF3121C9435F
:104DA000089888420ADA4521C9430898884202DAFD
:104DB0000020089002E03120C04308904421089868
:104DC0000855089809B0F0BD00007D9400001878DF
:104DD000000009540000047400000F2410B50146BF
:104DE0000812FE4B1A5C084610414300FC48C05AAA
:104DF00053100624E31A184110BD0022C28000217E
:104E00000171427170470146002002228A5E04232C
:104E1000CB5ED01A704710B5002202800222825E5B
:104E2000521C01D1EF4A4280002105E043884C002A
:104E3000021D13534A1CD1B20229F7DB10BDF7B58E
:104E400098B00446164610A91998888320680990DE
:104E5000002110A8C18181814183217C0174617C82
:104E60004174217E8174617EC174199800282CD010
:104E70000AA920461030E26802F032F909A88079C8
:104E8000FF2802D100201BB0F0BD0AA90AA8E268E1
:104E900002F0BAF809A8C079002800D033E20BA9C3
:104EA00020461830626902F01BF909A8807AFF28B1
:104EB00001D10020E7E70CA90BA8626902F0A4F871
:104EC00009A8C07B002817D01DE20AA9204610308F
:104ED000E26802F099F809A8C079002800D012E22F
:104EE000A0690B900CA90BA8626902F08DF809A8C3
:104EF000C07B002800D006E2012010A90883EDE164
:104F0000002005900490B84807900020089010A851
:104F1000808910A9498B8231401A00B206903AE08C
:104F200010A8017C08A8007A081A039010A8417CF8
:104F300009A84079081A02900398404300B20390F0
:104F40000298404300B2029002990398401887B239
:104F50003846FFF743FF07460698381805B2E813AE
:104F6000E9134919484005B20798854200DD13E06E
:104F70000795089708A8007A059009A84079049039
:104F80000AA90AA8E26802F03FF809A8C079002837
:104F900000D0B8E100BFC3E700BF10A905980874AE
:104FA00010A80499417481890898081881B210A842
:104FB0008181058B8C4808900020079010A8C0893B
:104FC00010A9498B8231401A00B2069049E010A81E
:104FD000817C6807C20E0BA8805C081A049010A898
:104FE000C17C6807C20E0BA810184078081A0390FD
:104FF0000498404300B204900398404300B20390E9
:1050000003990498401880B205900598FFF7E6FED2
:10501000059006990598401807B2F813F913C919B5
:10502000484007B20898874200DD1BE008970598C2
:105030000790681C85B26807C30E0BA81918681E74
:105040004007C30E0BA818186269029001F0DCFF3C
:105050006807C10E0BA80818C078002800D052E1DC
:1050600000BFB4E700BF681E85B210A80583C189E0
:105070000798081881B210A8C1816807C10E0BA853
:10508000415C10A8817408916807C10E0BA808182C
:10509000417810A8C174079109986030407A471E82
:1050A000022F7DDD03200690C1E081E00998806831
:1050B000FF3001307900415C10A8007C401A02905A
:1050C00009988068FF30013079004018417810A8B5
:1050D000407C401A01900298404300B2029001982F
:1050E000404300B2019001990298401880B20490A8
:1050F0000498192807DC09986030407D002800D00A
:1051000001E10020BFE609988068032109024018E8
:105110007900415C0898401A029009988068032140
:10512000090240187900401841780798401A019008
:105130000298404300B202900198404300B20190AF
:1051400001990298401880B205900598192807DC4B
:1051500009986030407D002800D0D4E0002092E61D
:105160000498FFF73BFE04900598FFF737FE059083
:10517000B81E07B2059904984018401120300090DD
:1051800005990498401A00B203900398C01303993C
:10519000CA135118484000B203900399009800E0E8
:1051A00046E0814200DD04E0022F00DA41E000BF6A
:1051B0007CE700BF0698032819D110A8008B401C7B
:1051C0004007C10E0BA8405C089010A8008B401C43
:1051D0004007C10E0BA80818407807E0000081FACC
:1051E00000007FFA00001EDE00007FFF0790069897
:1051F000022810D110A8008B401E4007C10E0BA83A
:10520000405C089010A8008B401E4007C10E0BA800
:1052100008184078079009986030407A471E069831
:10522000401E40B206900698002800DC57E03CE79C
:1052300000BF09986030817AFE2900DB63E0481CDA
:10524000C2B209986030827210A8027C0998806806
:10525000FF3001304B00C25410A8427C099880688E
:10526000FF3001304B00C018427010A8827C0998B2
:10527000806803231B02C0184B00C25410A8C07CD6
:10528000099A926803231B02D2184B00D21850705F
:1052900009986030007D2C22125DD20180231A40D3
:1052A0001043099A92685054002209988368881C18
:1052B0001A5410A8408B823082B210A842833088E2
:1052C000001D308032880998803000794300301DFD
:1052D000C05E824201DB0220D5E500BF10E60998DE
:1052E0006030407D00280BD009986030417A0998E1
:1052F00080300078091809986030807A814201DB9B
:105300000020C0E500BF09986030407AC01C0999B0
:105310006031897A884205DB10A8808B002801D093
:105320000020B0E509984030808A10A9498B4911C6
:10533000401881B20998403081820120A3E5F0B580
:1053400091B00446214610310846E26801F05CFE47
:10535000E07C002802D0002011B0F0BDA0690D90C3
:1053600000200BE001220CA90A54911E420008AB58
:105370009952411CC8B2042800DB00E0F2E700BFEC
:105380000020079000259EE020686030807A461E4D
:105390000020069005906CE0022E00DA6AE020689A
:1053A0008068FF3001307100415C207C401A02901F
:1053B00020688068FF300130710040184178607CBF
:1053C000401A01900298404300B202900198404375
:1053D00000B2019001990298401880B204902068B0
:1053E00080680321090240187100415CAA000DA8E1
:1053F000805C081A02902068806803210902401826
:10540000710040184178AA000DA810184078081AB9
:1054100001900298404300B202900198404300B2CC
:10542000019001990298401880B203900498FFF708
:10543000D5FC04900398FFF7D1FC0390B01E06B290
:1054400003990498401A07B2049903984018401130
:1054500020300090F813F913C919484007B2069894
:10546000C01980B206900098874201DD01200590A6
:1054700000BF91E700BF0799490008AA069850525B
:10548000079841000AA845520CA9079A0598885424
:105490000798401C00B20790681CC5B2042D00DBC1
:1054A00012E0AF000DABF9186B1E9F000DABF818A2
:1054B000626901F0A9FDA9000DA80818C0780028AC
:1054C00000D001E000BF5FE700BF56E00025FE48C6
:1054D00007900320069010E0069E760008AFB85BA8
:1054E000079EB04201DA0790069D069E761E36B2F0
:1054F0000696002E00DA01E000BFEDE700BFF24E95
:105500000798B04201D1002026E70CA8405D002892
:1055100003D16E000AA8815B30E0681C8207920FFD
:10552000E81C83079B0F580008AE305A560008AF9E
:10553000BE5BB0420FDA0CA8C05C002803D15E004D
:105540000AA8815B1AE00CA8805C002813D15600E1
:105550000AA8815B12E00CA8805C002803D15600E9
:105560000AA8815B0AE00CA8C05C002803D15E0099
:105570000AA8815B02E00020EEE6A7E700BF8A00F0
:105580000DA812181268A2610120E5E6F7B58CB0EB
:1055900007460C4600946846878434207843E168C7
:1055A0000818018E6846418534207843E16809185F
:1055B0000A8D68468283498DC18334207843E1682F
:1055C00009188A8D68460284C98D4184A068FF301D
:1055D0000130019003210902A068401802900021C7
:1055E00068460185062108A8C1730221682001557B
:1055F0000020A1680870A1684870A1688870A1683F
:10560000C87001217420015570E16820015D0E46CB
:1056100069200155701CC1B26A20015571000198C2
:1056200041186846007F08706846407F48700799B7
:105630000491E069039071000298411808A800786D
:10564000087008A84078487008990691606B05902A
:105650007420005DA16888550021B01CA268115417
:105660007420015D762001556220015B56200153B4
:105670006B200655002175200155602001535420F0
:1056800001537B2001557A200155022E1BD10220A7
:1056900008A90873002168460E9AFFF7D0FB05465B
:1056A000022D01D10FB0F0BD002D00D1FAE701218C
:1056B00068460E9AFFF7C3FB0546022D00D1F1E7BD
:1056C000002D1AD1EEE76846FFF739FE0546002D9A
:1056D00013D0002168460E9AFFF7B1FB0546022D54
:1056E00000D1DFE7002D08D0012168460E9AFFF7B0
:1056F000A6FB0546022D00D1D4E7002D77D07420FB
:10570000015D77200155204602F034F883E0A0695E
:105710000078002800D0C5E7002108A80173C17BEC
:105720006920005D001F814200DB75E008A8C17B95
:105730004173C07B001DC1B208A8C17369E008A80D
:10574000007B401CC1B208A80173007B032800DB6A
:1057500060E06A20005DF92800DBA3E7684601F0FD
:10576000D7FF0546002D00D153E06846FFF7E7FD5F
:105770000546002D00D14CE06920065D701CC1B2C9
:105780006A2001557100019841186846027C0A7030
:10579000407C48707100029841186846027E0A7089
:1057A000407E48707420005D08A9097BC9018022F1
:1057B00011400843A16888550021B01CA26811540B
:1057C00068460E9AFFF73BFB0546022D00D169E7BC
:1057D000002D03D1204602F040F81AE0012168466E
:1057E0000E9AFFF72CFB0546022D01D15AE72BE05C
:1057F000002D03D1204602F030F80AE0204601F0E7
:10580000B9FF6420015B6620005B814200DB49E751
:1058100000BF94E700BF7AE700BF7520005D002855
:1058200002D1204602F032F808A8C17B6820005D52
:10583000814204DB6820005D001D08A9C873742044
:10584000005D012803D152E0204602F006F87420E2
:10585000015D7720005D081A86B27720005D01287F
:1058600004DD7020005DB04205DD40E07120005D88
:10587000B04200DD3BE06846808C34225043E16852
:1058800009186846008D4000095A68464185808C99
:105890005043E168091808316846008D80000918F6
:1058A0000A88684682834988C183808C34225043A9
:1058B000E168091818316846008D800009180A88C7
:1058C00068460284498801E00000FFFF4184008DA2
:1058D000401C81B268460185008D042800DB06E08B
:1058E0006846408DF849884200D100E08DE600BF4F
:1058F00000BFD7E6F7B586B005460C462678677830
:10590000B0207843801980B201900199089801F085
:1059100044FC03900398A07004A92046089A01F063
:10592000DFFB6846807C02900298FF2802D10020AD
:1059300009B0F0BD05A92046089A01F065FB04A94D
:1059400004A8089A01F060FB287869786E46367DD5
:10595000321A6E46767D731A164656431F465F43CB
:10596000F61936B201966E46367C321A6E46767C51
:10597000731A164656431F465F43F61936B2009611
:10598000009F019EBE4202DA039EA67001E0029EC5
:10599000A6700120CCE7F7B58EB000200A906846CB
:1059A000C08F09906846818F018410A80078079005
:1059B00010A8407806900998002805D16946098CFE
:1059C0000904084611B0F0BD08A907988875684613
:1059D000018C818681850DA90DA80E9A01F014FB1A
:1059E00008A8C07D002801D00D98EBE7069805B205
:1059F00044E0B54803900020029000BF08A8017B56
:105A0000007D0F1A08A8417B407D081A0590384692
:105A1000784307B20598404300B2059005983818BE
:105A200080B2019001984100A848405A8411601B3F
:105A300000B204900498404386B20398864210DA7C
:105A400003966846818E01860DA90DA80E9A01F075
:105A5000DBFA029408A8C07D002800D1CEE70D989B
:105A6000B0E759210298081A401905B26846018E1C
:105A700081850A98401C80B20A9000BF09990A9853
:105A80008842B6DB6946898D090408469AE7F7B56E
:105A900088B005460C46002007906088A84205DCC7
:105AA0006946898B090408460BB0F0BDEE102088CA
:105AB000471E03E0002F00D108E07F1EB800D5216B
:105AC0008900611840184088A842F3DC00BFB80084
:105AD000D521890061184018008869468882B8007D
:105AE000D521890061184018408803900398C010A0
:105AF0000690002004900698C1000398814203DAC2
:105B00000698401C80B206900698B04219DD68469F
:105B1000818A818001794079B0225043081880B28F
:105B2000009000990A9801F038FBC1B268460172F2
:105B3000592141720398281A001D81B26846C1801C
:105B400016E0B100201D0818018868468180B10068
:105B5000201D0818817868460172B100201D0818C0
:105B6000C17868464172F000281A81B26846C18047
:105B7000029A01990A98FFF70EFF07906946898BF0
:105B80000904084690E7F0B5A9B0044660680C9097
:105B9000002020A9C87000BF0BE00022342141433F
:105BA000E368591820318A74411CC8B20C2800DD02
:105BB00000E0F2E700BF16206E21095D814201DAA4
:105BC0006E21085D20A9887000200D9070E021688A
:105BD0000D9800010818458821680D9800010818E3
:105BE000042686572846626B616CFFF750FF0B90C6
:105BF00008A8027B0A210D9848430C990A5408A86A
:105C0000427B0A210D9848430C9940184270AB1909
:105C100098B2626B616CFFF73AFF0B9008A8027BA9
:105C20000A210D9848430C994018827108A8427BBC
:105C30000A210D9841430C980818C2717010401940
:105C400085B20A210D9848430C99401805812846D1
:105C5000626B616CFFF71BFF0B9008A8027B0A21A7
:105C60000D9848430C994018827008A8427B0A217D
:105C70000D9848430C994018C2706B1C98B2626B27
:105C8000616CFFF704FF0B9008A8027B0A210D98B6
:105C900048430C994018027108A8427B0A210D98CC
:105CA00048430C99401842710D98401C80B20D90E9
:105CB00020A881780D98814289DC206800880249FB
:105CC000884205DB00F0AFFE0000FFFF00007FFA16
:105CD000002020A90870FDE320A9087802012168AE
:105CE00089188A7920A90A76020121688918CA7957
:105CF00020A94A760A2141430C9A525C20A98A764F
:105D00000A2141430C9A89184A7820A9CA760201CF
:105D1000216889180A7B20A90A770201216889185D
:105D20004A7B20A94A770A2141430C9A89188A792B
:105D300020A98A770A2141430C9A8918CA7920A997
:105D4000CA77020121688918CA8920A98A810201BB
:105D5000216889180A7A20A90A7502012168891820
:105D60004A7A20A94A750A2141430C9A89180A895E
:105D700020A9CA810A2141430C9A89188A7820A94E
:105D80008A750A2141430C9A8918CA7820A9CA75D4
:105D900000200DE00021C94342000EAB99520A4693
:105DA000430017A9CA52411CC8B2122800DB00E008
:105DB000F0E700BFFF2120A8417000214184E5E207
:105DC00020AD6D786D1CE8B220ADAD78854200DC69
:105DD000DDE220AD68702D78854200D1D6E2060163
:105DE0002568AD190426AE57771006012568AD1950
:105DF000EA8920ADAD89AD1A29B2CD13CE1376183C
:105E0000754029B2092900DAC0E220AD2A820601D4
:105E10002568AD19AD790B9506012568AD19ED79A9
:105E20000A9506012568AD196B88DD19AAB220AD67
:105E30006A82ED89AD1A29B2CD13CE13761875405A
:105E400029B2092900DAA1E20A2545430C9E755DB5
:105E500009950A2545430C9EAD196D78089520A833
:105E6000017E0B98461A20A8417E0A98471A76436D
:105E70007F43F01980B207900798FEF7AFFF0790B5
:105E800020A8817E0998461A20A8C17E0898471A42
:105E90003046704306B23846784307B2F01980B2F4
:105EA00006900698FEF79AFF069006990798401804
:105EB00040112E30059006990798401A05B2E81354
:105EC000E9134919484005B20598854200DD5DE2B5
:105ED00020A8017F0B98461A20A8417F0A98471AEC
:105EE0003046704306B23846784307B2F01980B2A4
:105EF00007900798FEF772FF079020A8817F099806
:105F0000461A20A8C17F0898471A3046704306B247
:105F10003846784307B2F01980B206900698FEF72B
:105F20005DFF069006990798401840112E300590A5
:105F300006990798401A05B2E813E9134919484031
:105F400005B20598854200DD20E220A8017D0B986E
:105F5000461A20A8417D0A98471A3046704306B277
:105F60003846784307B2F01980B207900798FEF7D9
:105F700035FF079020A8817D0998461A20A8C17D89
:105F80000898471A3046704306B23846784307B23D
:105F9000F01980B206900698FEF720FF0690069949
:105FA0000798401840113230059006990798401A1A
:105FB00005B2E813E9134919484005B2059885422E
:105FC00000DDE3E120A8017E007D0E1A20A8417EBD
:105FD000407D0F1A3046704306B23846784307B208
:105FE000F01980B207900798FEF7F8FE079020A8F6
:105FF000817E807D0E1A20A8C17EC07D0F1A30469A
:10600000704306B23846784307B2F01980B2069062
:106010000698FEF7E3FE069006990798401840118F
:106020003230059006990798401A05B2E813E91333
:106030004919484005B20598854200DDA6E120A82F
:106040004078000121680818007A0B9020A8407859
:10605000000121680818407A0A9020A840780A2197
:1060600048430C9940188078099020A840780A216C
:1060700048430C994018C078089020A8017D0B98DF
:106080000E1A20A8417D0A980F1A76437F43F01913
:1060900080B207900798FEF7A1FE079020A8817DA7
:1060A00009980E1A20A8C17D08980F1A304670432F
:1060B00006B23846784307B2F01980B206900698C7
:1060C000FEF78CFE0690069A0799891888B201217E
:1060D0004903884200DD59E120A908840699079800
:1060E000401840112E30059006990798401A05B2C5
:1060F000E813E9134919484005B20598854200DDC7
:1061000044E120A8017F0B980E1A20A8417F0A982D
:106110000F1A3046704306B23846784307B2F0197A
:1061200080B207900798FEF759FE079020A8817F5C
:1061300009980E1A20A8C17F08980F1A304670439C
:1061400006B23846784307B2F01980B20690069836
:10615000FEF744FE06900699079840184011323029
:10616000059006990798401A05B2E813E9134919F2
:10617000484005B20598854200DD07E120A8407837
:10618000000121680818007B0B9020A840780001CE
:1061900021680818407B0A9020A840780A214843CB
:1061A0000C9940188079099020A840780A2148432A
:1061B0000C994018C079089020A8017E0B98461AC7
:1061C00020A8417E0A98471A76437F43F01980B28F
:1061D00007900798FEF702FE079020A8817E099895
:1061E000461A20A8C17E0898471A3046704306B266
:1061F0003846784307B2F01980B206900698FEF749
:10620000EDFD069006990798401840112E30059034
:1062100006990798401A05B2E813E913491948404E
:1062200005B20598854200DDB0E020A8017F0B98FB
:10623000461A20A8417F0A98471A3046704306B292
:106240003846784307B2F01980B207900798FEF7F6
:10625000C5FD079020A8817F0998461A20A8C17F14
:106260000898471A3046704306B23846784307B25A
:10627000F01980B206900698FEF7B0FD06900699D8
:106280000798401840112E30059006990798401A3B
:1062900005B2E813E9134919484005B2059885424B
:1062A00000DD73E020A8017D0B98461A20A8417DEF
:1062B0000A98471A3046704306B23846784307B208
:1062C000F01980B207900798FEF788FD079020A884
:1062D000817D0998461A20A8C17D0898471A304642
:1062E000704306B23846784307B2F01980B2069080
:1062F0000698FEF773FD069006990798401840111E
:106300003230059006990798401A05B2E813E91350
:106310004919484005B20598854200DD36E020A9BC
:10632000488C00281DDD1AE020A90A8C411E490076
:106330000EAB595A8A4200DB12E0411E4A0017A9EF
:106340008A5A4300CA52411E49000EAA515A4200BD
:106350000EAB9952411E88B2002800DC00E0E3E752
:1063600000BF20A9098C42000EAB995220A94A789F
:10637000430017A9CA5220A9488C102805DA20A882
:10638000408C401C81B220A8418400BF18E500BFAA
:1063900020A8408C02287DDB01200B90F0E10B98B7
:1063A000410017A8455A290120684018817920A882
:1063B0000171290120684018C17920A84171290183
:1063C00020684018017B20A801722901206840182C
:1063D000417B20A84172290120684018C18920A86A
:1063E00001820A2068430C99095C20A881710A2067
:1063F00068430C994018417820A8C1710A2068436D
:106400000C994018817920A881720A2068430C9960
:106410004018C17920A8C1720A2068430C9940181D
:10642000018920A8418200200A9009906CE10B9913
:106430000998884202DB01200A9066E10998410030
:1064400017A8455A0998401C80B209902B01226870
:10645000D218D18920AA128A8A1A10B2C213C31381
:106460001B185A4010B2092800DA4EE12B012268AD
:10647000D218927908922B012268D218D279079209
:106480002B012268D21852882E0123689B190426FA
:106490009E5700E077E17310D21891B220AA528A79
:1064A0008A1A10B2C213C3131B185A4010B209281B
:1064B00000DA2AE10A226A430C9B9A5C06920A22BD
:1064C0006A430C9BD2185278059220A8017908984B
:1064D000461A00E0A4E220A841790798401A0290E9
:1064E00076430298404302900298301880B204909C
:1064F0000498FEF773FC049020A88079069A161A77
:1065000020A8C079059A101A02903046704306B24E
:106510000298404300B202900298301880B2039073
:106520000398FEF75BFC0390039904984018401110
:106530005C30019003990498401A07B2F813F913DC
:10654000C919484007B20198874200DDDDE020A864
:10655000017A0898461A20A8417A0798401A0290B2
:106560003046704306B20298404300B2029002984F
:10657000301880B204900498FEF730FC049020A8F4
:10658000817A0698461A20A8C17A0598401A029086
:106590003046704306B20298404300B2029002981F
:1065A000301880B203900398FEF718FC039003990B
:1065B0000498401840115C30019003990498401AE7
:1065C00007B2F813F913C919484007B20198874276
:1065D00000DD9AE0290120684018007B089029011D
:1065E00020684018407B07900A2068430C994018A7
:1065F000807906900A2068430C994018C07905906C
:1066000020A801790898461A20A841790798401ACD
:10661000029076430298404302900298301880B26C
:1066200004900498FEF7DAFB049020A8817906987C
:10663000461A20A8C1790598401A02903046704346
:1066400006B20298404300B202900298301880B21D
:1066500003900398FEF7C2FB039003990498401837
:1066600040115C30019003990498401A07B2F81366
:10667000F913C919484007B20198874200DD44E088
:1066800020A8017A0898461A20A8417A0798401A4B
:1066900002903046704306B20298404300B2029026
:1066A0000298301880B204900498FEF797FB04908B
:1066B00020A8817A0698461A20A8C17A0598401A1F
:1066C00002903046704306B20298404300B20290F6
:1066D0000298301880B203900398FEF77FFB039076
:1066E00003990498401840115C3001900399049874
:1066F000401A07B2F813F913C919484007B20198B4
:10670000874200DD01E000BF91E600BF0A98002843
:1067100009D00B98401C80B20B9020A8418C0B989C
:1067200081422CDC2DE00B9809901BE00998401C5D
:10673000410017A8415A0998420017A881520998A8
:10674000401C40000EA9095A099840000EAA115297
:106750000998401C80B2099020A8418C0998814278
:1067600000DA00E0E2E700BF20A8408C401E81B2C2
:1067700020A84184418C0B98814200DC01E000BFDD
:106780000DE600BF00BF20A8408C02287EDB3AE166
:1067900020A80078000121680818018968468185D1
:1067A00020A9097809012368591808460A300BA95D
:1067B000E269FFF79FF809900998002800D123E1CA
:1067C00020A800780A2148430C994018418868465F
:1067D000018520A909780A235943626B0C9BC918CB
:1067E000081D0AA9FFF786F809900998002800D12A
:1067F0000AE10020089012E0089840000EA9085A0B
:106800000321C902884200DB0AE00898401C80B2DC
:10681000089020A8418C0898814200DC00E0EBE75A
:1068200000BF0898022800DAEEE0E66820A8C578E4
:10683000002D1CDD19E020A8418C681E3422504335
:1068400080192030807C814200DC0FE06A1E3423F6
:106850005A4391191A466A4390191A4601F037F8BB
:10686000681E05B2002D00DC00E0E4E700BF0898D8
:10687000C1B23420684380192030C17420A8408CF4
:10688000C1B2342068438019203000E0BDE081743B
:1068900020A8017834206843801901863420684399
:1068A00081196846808D08856846C08D48853420EA
:1068B000684381196846008D88856846408DC88583
:1068C0000027FF430020079090E0781C07B2790072
:1068D00017A8405A0590790017A8415A34206843F8
:1068E0008219079840001152F7490598884200D153
:1068F0007DE07A0017A8805A00012168095A7B00C0
:1069000017A8C05A0001226810180422825650109D
:10691000081880B206907A0017A8805A00012168F2
:1069200008180089694688857B0017A8C05A0001AD
:10693000216808180A3004900BA9E269FEF7DAFF13
:1069400009900998002800D150E03420684380194C
:1069500008300799890041186846808D088068468C
:10696000C08D48807A0017A8805A00012168081855
:1069700041887B0017A8C05A000122681018042221
:1069800082565010081880B20690790017A8405A15
:106990000A2148430C9940184188684601857B00CC
:1069A00017A9C95A0A235943626B0C9BC918081DC1
:1069B0000AA9FEF79FFF09900998002800D115E069
:1069C00034206843801918300799890041186846B7
:1069D000008D08806846408D48800798401C00B2B2
:1069E00007900798042800DB01E000BF6DE700BFB7
:1069F00020A8C0780C2805DA20A8C078401CC1B2B5
:106A000020A8C17000E0C3E600BF20A80078401CA9
:106A1000C1B220A8017001788078814200DB01E0DA
:106A2000FFF75AF900BF20A8C07829B0F0BDF7B52C
:106A300092B004460E4620210AA800F061FF2046CD
:106A4000FFF7A1F8C0B208901498017908980818C7
:106A5000C1B21498017114984179E0682030807CAB
:106A60000818C1B2149841710020099016E0E1683D
:106A700034220998504308182030817C8420005D1E
:106A80004200301D805A401A01B28420005D42004D
:106A9000301D81520998401CC0B20990089909988C
:106AA0008842E4DB0898012802DA002015B0F0BD26
:106AB0005B20005D0921090248434910401800127B
:106AC00010A94880089808710898042801DA0898E5
:106AD00000E0042010A948712021732001550021F5
:106AE0005E2001555F200155002525E110A8418851
:106AF0006620015300216220015334206843E1687D
:106B000008182030807C0790002110A80180A0691F
:106B10000078002800D010E10027D3E0A81CC0B204
:106B20000690681CC0B2059000200490039010A845
:106B30000179681C814208DC0595069507980228B2
:106B400010DC0120049003900CE010A80179A81C2F
:106B5000814207DC681CC0B206900798022801DC5D
:106B600001200390E1683422059850430818203032
:106B7000817C079809180498081A0290E168069821
:106B8000504308182030817C0398091A029808188D
:106B900000B20290691EC8B2002D00D1002034213D
:106BA0004143E268511820318A7C0299511809B298
:106BB00002914C23029A9A1AD0103823029A9A1AF8
:106BC000D1104E23029A9A1A12110192042806DC5F
:106BD0000420079A0A2A02DB10AA578876E084224A
:106BE000125D5200331D9A5E002A01DC00276DE021
:106BF000022900DA0221019A022A01DA0222019214
:106C000072231855702319557123019A1A556C2057
:106C1000005D0090029880006021091A00984200EF
:106C20008018081800B200900098002801DA0020AF
:106C30000090242100984843890148438000000CBB
:106C40000190242100984843C011001DC1B280204A
:106C500001552421009848430004010E812001556C
:106C600010A9019808806620015B0198081881B27C
:106C700066200153002164200153782001557920BA
:106C8000015500203080324621462846FEF77EFC22
:106C90008420005D4100301D405A3188401A01B205
:106CA0008420005D4200301D81526420075B10A9E2
:106CB0000888B84201DD002703E010A80088381AD0
:106CC00087B203E02AE700000000FFFF00BF691C55
:106CD000C8B212E0411E49000AAA515A069106990B
:106CE0008F4200DC0AE042000AAB06999952411E2D
:106CF000C8B2002800DC01E000BFEBE700BF4100A4
:106D00000AAA57525A20005D40000AA9085A10A941
:106D10004988884200DB10E08420005D4100301D7E
:106D2000405E002800DC08E0681CC5B210A840796D
:106D3000A84200DC01E000BFD8E600BF6846018D34
:106D4000FF20C83048430123DB02C01801135B2039
:106D5000025D914212DB5A231B5D5B000AAFF85AB9
:106D60001146FF23C83343430127FF02DB191813E1
:106D7000904200DD10465F27385500BF5E20015568
:106D80005A2093E6F1B594B034229B4907A800F04D
:106D90009EFD14984068401C069014980068059069
:106DA00014984068007869468883002009E0002232
:106DB000D24305990A50011D88B29049884200D3F8
:106DC00000E0F4E700BF0024002513E1182C0BDCE1
:106DD0002802069E3678304305460698401C0690E9
:106DE0002046083044B205E120460C382E46C64005
:106DF0003005000D04906846068C0498301886B261
:106E00006846068420460C3844B27C4EDB36049833
:106E1000B0420AD16846068C784FDA370498381A9F
:106E2000301886B268460684E4E06846028CD610C4
:106E30000598815D5607760F714830410140D610A4
:106E400005988155E01E2E46C6407007400F0390FE
:106E5000E01E44B2039840006A4E305A801882B255
:106E60000020029023E0182C0BDC2E02069F3F78B6
:106E70003E433546069E761C06962646083674B274
:106E800015E02646083E2F46F740F8B2029E361817
:106E9000B6B202962646083E74B2FF2806D1FE26F8
:106EA000371A029EBE19B6B2029600E000E0DAE799
:106EB00000BFD61005983318187857077F0F504E2B
:106EC0003E413040014619700020019002200090A0
:106ED00037E0A01E2E46C640B107890F08A8023031
:106EE000415C0807000F201A44B209110198800084
:106EF0003C2630404E1C7607760F304301900398B5
:106F000040184007400F0390039840003D4E305A10
:106F1000801882B20298401E80B20290D610059866
:106F20003318187857077F0F354E3E4130400146E1
:106F300019700098401E40B200900098002800DCB4
:106F400000E0C6E700BF52E0082C0ADA2802069EDD
:106F50003678304305460698401C06902046083097
:106F600044B2019880003C2630400190A01E2E467D
:106F7000C640B607B60F0198311809A80230415C27
:106F80000807000F201A44B20911481C4007400F9F
:106F9000019E30430190039840184007400F039032
:106FA00003984000174E305A801882B20298401E53
:106FB00080B20290D61005983318187857077F0FC3
:106FC0000F4E3E413040014619700298002800DD06
:106FD0000DE06846C08B401C86B26846C683C68BEF
:106FE000808B864202DB012015B0F0BD00E0ABE7EC
:106FF00000BF00BFEAE6000000007DC400000F24CF
:107000000000FF7F00007D84FFB504461546207810
:10701000039060780290A27844E0B027029E7E43FD
:10702000039FF619B6B201965600F94FBF5B019E59
:10703000BE19B0B2C610AE5D009647077F0F009E26
:10704000BE4080273E4200D12DE0D61D73075B0F66
:107050005E00EF4FBF5B019EBE19B0B2C610AE5DC1
:10706000009647077F0F009EBE4080273E4201D119
:107070001A4618E0561C73075B0F5E00E44FBF5BB7
:10708000019EBE19B0B2C610AE5D009647077F0FD5
:10709000009EBE4080273E4201D11A4603E00126F1
:1070A000CE70FFBDB9E700BFDAA648CE01960093C7
:1070B0006B46985C03115B1E039E9B19DBB2039326
:1070C00003071B0F5B1E029E9B19DBB20293039802
:1070D0000870029848708A700020C87000BFE0E70E
:1070E000F0B585B003460C461878049058780390A4
:1070F000B021039848430499401885B298780290CB
:10710000FF20019004982070039860703FE0029E79
:10711000361D7007400F4600BD4FBE5B7619B1B2F9
:10712000CE10965D00964F077F0F009EBE408027D1
:107130003E4201D101902BE0029E761D7007400F68
:107140004600B34FBE5B7619B1B2CE10965D009685
:107150004F077F0F009EBE4080273E4201D1019025
:1071600016E0029EF61C7007400F4600A84FBE5B5B
:107170007619B1B2CE10965D00964F077F0F009E34
:10718000BE4080273E4201D1019001E000E0BEE711
:1071900000BF0198A07005B0F0BD30B502460B46A7
:1071A0001846B03801B2C810145C4D076D0F204668
:1071B000A8408025284201D1002030BD1846AF38B4
:1071C00001B2C810145C4D076D0F2046A840802501
:1071D000284201D10120F0E7581C01B2C810145C0C
:1071E0004D076D0F2046A8408025284201D102207E
:1071F000E3E71846B13001B2C810145C4D076D0FBB
:107200002046A8408025284201D10320D5E7184612
:10721000B03001B2C810145C4D076D0F2046A84075
:107220008025284201D10420C7E71846AF3001B2BB
:10723000C810145C4D076D0F2046A84080252842D9
:1072400001D10520B9E7581E01B2C810145C4D07E2
:107250006D0F2046A8408025284201D10620ACE7CA
:107260001846B13801B2C810145C4D076D0F2046A6
:10727000A8408025284201D107209EE7FF209CE7F7
:10728000F0B585B004460A4601204003104003468D
:10729000204650400146E013E6133619704080B294
:1072A0000490D013D613B618704080B2039001201A
:1072B00000030840C318049806B2039800B2301ABD
:1072C0004840C113012000030840C318039E0498DE
:1072D000B0421ADB04984000504E305A0190039E91
:1072E000019870430090481C081801B20098000AE9
:1072F00040004B4E355A0846684380B202900298CF
:10730000181883B218B205B0F0BD03984000434E80
:10731000305A0190049E019870430090481C081850
:1073200001B20098000A40003D4E355A08466843B5
:1073300080B202900298181883B218B2E3E7F3B54E
:1073400090B00C460D94109801280DD120681C3087
:107350000C90204610300A90E0680B9020688068FE
:10736000FF3001300E900DE0206834300C90204644
:1073700018300A9060690B90206880680321090228
:1073800040180E902D20005D40000E99095C08A861
:1073900001772D20005D40000E990818417808A85B
:1073A00041772E20005D0990099840000E99095CF4
:1073B00008A8007F401A0890099840000E99081804
:1073C000417808A8407F401A079007990898FFF76E
:1073D00057FF01210903401805B22C20005DC007AA
:1073E000800C401905B2AD04AD0C4800854228DC84
:1073F0004010854216DCA81108494439085C089001
:1074000001200003401B8011085C07903BE0000056
:1074100000007D8410202122120201000000833E22
:1074200000007DF601204003401B8011FE49085CEE
:107430004042089001200003281A8011085C079040
:1074400021E00320000385420FDC01204003281ABD
:107450008011F549085C4042089003200003401B5E
:107460008011085C404207900DE001208003401B22
:107470008011ED49085C089003200003281A801150
:10748000085C404207900C200690B2E008A8037FF9
:107490000699089848434012181807B208A8437F75
:1074A0000699079848434012181806B2AF2F05DA1C
:1074B000002F03DDAF2E01DA002E02DC002012B017
:1074C000F0BD0698001D00B206900698802801DDE8
:1074D0000020F4E7B0207043C01980B205900598F1
:1074E0004107490F80220A410C9801680598C01095
:1074F000085C104004900498002834D12068603063
:10750000807A02282EDD20686030807A0390022184
:1075100025E04B000E98C05CC01B00B201904B00F0
:107520000E98C0184078801B00B20090019840432C
:1075300000B201900098404300B20090009B019877
:10754000C01880B202900298182801DC0020B6E72B
:10755000481CC1B20398814200DB01E000BFD8E7BC
:1075600000BF00BF46E00598B03080B205900C988F
:1075700001680598C010085C104004900498002829
:1075800036D120686030807A022830DD2068603093
:10759000807A03900221701C06B225E04B000E9801
:1075A000C05CC01B00B201904B000E98C018407820
:1075B000801B00B200900198404300B201900098F7
:1075C000404300B20090009B0198C01880B2029026
:1075D0000298182801DC002071E7481CC1B203980A
:1075E000814200DB01E000BFD8E700BF00BF01E03F
:1075F00000BF4BE700BF0A990F700A994E700599BA
:107600000B98FFF7CAFDC0B204900A9904988870DD
:107610000498FF2801D1002051E705A90B9A0A9888
:10762000FFF7F2FC6846C07D002816D1029011E0F9
:1076300005A905A80B9AFFF7E7FC6846C07D00285E
:1076400000D008E00298401CC0B2029002980328C3
:1076500000DB00E0ECE700BF00BF04A90B9A0A982A
:10766000FFF73EFD6846807CFF2801D1002026E719
:107670006846807C03900020029011E004A904A8D1
:107680000B9AFFF7C1FC6846C07D002800D008E0D7
:107690000298401CC0B202900298042800DB00E06F
:1076A000ECE700BF2E20075D79000E98405C079044
:1076B00079000E984018407806906846017D07983A
:1076C0000E1A6846417D06980D1A3046704306B280
:1076D0002846684305B2701980B209906846017C5B
:1076E00007980E1A6846417C06980D1A304670437A
:1076F00006B22846684305B2701981B2089108990C
:107700000998884202DD0A99039888700120D6E61C
:10771000F8B504462D20055D20688068465D002E82
:1077200001D10020F8BD20688168E81C085CB042E7
:1077300002D1E81CC7B20AE020688168E81E085C34
:10774000B04202D1E81EC7B201E00020EAE72E20D5
:10775000075521460120FFF7F2FD00900098002810
:1077600001D10098DEE721460220FFF7E8FD0090F6
:107770000098D7E770B57422125C521CD6B27422FE
:10778000165433465422115A002616526A22165CA9
:107790003446692216548122155C5BE02A1D8A4218
:1077A0000CDD7922125C521CD6B2792216547B224F
:1077B000125C521CD6B27B2216544CE07522125C2D
:1077C000002A19D17726325C7926365CB218012A54
:1077D00004DC7026365CB61832B203E07126365CE3
:1077E000B61832B26026365A7618B1B260263152D7
:1077F000934200DA2FE000BF01267522165474224E
:10780000165C76221654682214546B221454622299
:10781000125A521891B262221152562211527922F2
:10782000165C7822165401E0000082FA7B22165C76
:107830007A2216547222125C9E1A7922125C521C11
:10784000964200DA07E06422125A8A4201DA642280
:10785000115200E0A2E700BF70BD10B50023542212
:1078600013527822135C792213547A22135C7B2200
:1078700013546922135C19466A2213540022836848
:107880005A5400234A1C8468A35410BD56210A5A36
:1078900062210A5276210A5C74210A546B210A5C27
:1078A00068210A54704770B500242546002801DA83
:1078B00001244042002901DA0125494200F07AF80A
:1078C000AC4200D04042002C00D0494270BD03467B
:1078D0000B439B0703D009E008C9121F08C0042A04
:1078E000FAD203E00B780370401C491C521EF9D2F7
:1078F0007047D2B201E00270401C491EFBD27047B3
:107900000022F6E710B513460A4604461946FFF76B
:10791000F0FF204610BD30B504460020034600E0CD
:107920005B1C934203D2E05CCD5C401BF8D030BDC1
:107930000321037812021A43401C491EF9D5104650
:10794000704703220346091D491E0870000A521E93
:10795000FAD5184670474146016049464160514694
:1079600081605946C160714601611430F0C06946BA
:107970000160001D01B5C046C04606BC964601C167
:107980000020704704000D00A06AC046C046616A2E
:107990008D462200280000D10120116888465168D8
:1079A000894691688A46D1688B4611698E461432A1
:1079B000F0CA704730B50B46014600202022012452
:1079C00009E00D46D5409D4205D31D469540491B13
:1079D0002546954040191546521E002DF1DC30BD5C
:1079E000064C0125064E05E0E36807CC2B430C3C12
:1079F00098471034B442F7D3F8F766FB000084FCD4
:107A00000000851C30B58C180278401C13071B0F32
:107A100001D10378401C120906D10278401C03E012
:107A200005780D70401C491C5B1EF9D101E00B70FC
:107A3000491C521EFBD1A142E6D3002030BD10B537
:107A40007C2000F01BF8C0B210BD10B57B2000F008
:107A500015F8C0B210BD7CB5069C5D25019500945B
:107A600000F062F8C0B27CBD7CB5069C5C25019537
:107A7000009400F059F8C0B27CBD00000102FF2262
:107A800012025140C0B2084300490847006001019A
:107A900002464A4030B413040A02FF242402624022
:107AA0001A43C9B21143014A30BC104700600105B6
:107AB00030B403464B4053401C041302FF252D02F3
:107AC0006B402343D2B21A43014B30BC184700002D
:107AD00000600109F0B404464C4054405C401D0273
:107AE0002404FF26360275402543034CDBB22B43AA
:107AF000A446F0BC604700000060010DF8B50546E3
:107B00004D405540069C5D4065402E042502FF27F0
:107B10003F027D403543E4B22C430094014CA04722
:107B2000F8BD000000600111FEB584464840504099
:107B3000089D099C58406840604006042702FF20C9
:107B400000024740E0B2374338430190024C0095B1
:107B50006046A047FEBD000000600115FEB58646E8
:107B600048405040089E5840099D70400A9C68401B
:107B700060408C4607042002FF2109024140E0B228
:107B8000394308430290034C6146009601957046C4
:107B9000A047FEBD0060011910B56822FFF788FFFD
:107BA000C0B210BD10B56920FFF768FFC0B210BDAC
:107BB00030B47446641E2578641CAB4200D21D4666
:107BC000635D5B00E31830BC184702E008C8121F71
:107BD00008C1002AFAD170477047002001E001C1B6
:107BE000121F002AFBD1704710B52322FFF760FF58
:107BF00080B210BD10B52222FFF75AFF80B210BD2F
:107C000010B52121FFF744FF80B210BD10B524222A
:107C1000FFF74EFFC0B210BD10B52522FFF748FF99
:107C200010BD10B52B21FFF733FF10BD10B5262175
:107C3000FFF72EFF10BD10B52723FFF74BFFC0B293
:107C400010BD10B52A21FFF723FF10BD10B5282164
:107C5000FFF71EFF10BD10B52922FFF729FFC0B2A4
:107C600010BDFEB5089C0F266F46099D70C7FFF733
:107C700075FFFEBD10B50E23FFF72CFF10BD38B504
:107C800015240094FFF73AFF38BD10B52C21FFF7FB
:107C9000FFFE10BDFEB5089C0D266F46099D70C7FE
:107CA000FFF75CFFFEBD10B52D22FFF701FF10BDF1
:107CB00010B53221FFF7ECFE10BD10B50C22FFF716
:107CC000F7FE10BD10B52E21FFF7E2FE10BD10B576
:107CD0002F23FFF7FFFEC0B210BD10B53021FFF714
:107CE000D7FE10BD10B53122FFF7E2FE10BD10B572
:107CF0001022FFF7DDFE10BD10B51620FFF7BEFE07
:107D000010BD10B50722FFF7D3FE10BD38B508240B
:107D10000094FFF7F3FE38BD10B50521FFF7B8FE5C
:107D200010BD10B51323FFF7D5FE10BD10B51220FE
:107D3000FFF7A4FE10BD0000000006CB0000069B6C
:107D40000000064B0000063D00000174022E02E810
:107D5000045C05D00744000000000200030004009A
:107D60000600080000000000000007F10000079B6B
:107D7000000007290000078DFFFFFFFFFF00000143
:107D800001000000FF50FF51000100B100B000AF42
:107D9000FFFFFF4F494445584D5443483230303679
:107DA00030332D3435322D353730360000000000A9
:107DB00020180716000EAEDA012B01141FF81C6400
:107DC0000901164A0000000000B001017212000013
:107DD000000001011111717101010000000010107B
:107DE000101001017212707070700000000001012B
:107DF0001111717101010000000A0014001F002917
:107E00000033003D00470051005C00660070007ABE
:107E10000084008E009900A300AD00B700C100CB24
:107E200000D500E000EA00F400FE01080112011C88
:107E300001260130013A0144014E01580162016CF2
:107E400001760180018A0194019E01A801B201BC62
:107E500001C601D001D901E301ED01F70201020BD6
:107E60000214021E02280232023B0245024F02584F
:107E70000262026C0275027F02880292029B02A5D6
:107E800002AF02B802C102CB02D402DE02E702F165
:107E900002FA0303030D0316031F03280332033BF7
:107EA0000344034D0356035F03680372037B03849B
:107EB000038D0396039F03A803B003B903C203CB4A
:107EC00003D403DD03E503EE03F704000408041103
:107ED000041A0422042B0433043C0444044D0455C6
:107EE000045E0466046F0477047F04880490049899
:107EF00004A004A904B104B904C104C904D104D97B
:107F000004E104E904F104F9050105090511051965
:107F1000052105290530053805400548054F055759
:107F2000055E0566056E0575057D0584058C059362
:107F3000059B05A205A905B105B805BF05C605CE77
:107F400005D505DC05E305EA05F105F90600060798
:107F5000060E0615061C0623062906300637063EC1
:107F60000645064C0652065906600666066D0674FE
:107F7000067A06810687068E0694069B06A106A849
:107F800006AE06B506BB06C106C806CE06D406DA9E
:107F900006E106E706ED06F306F906FF0706070CFD
:107FA00007120718071E07240729072F0735073B65
:107FB00007410747074D07520758075E07640769DF
:107FC000076F0775077A07800785078B0791079664
:107FD000079C07A107A607AC07B107B707BC07C1F5
:107FE00007C707CC07D107D707DC07E107E607EB90
:107FF00007F107F607FB08000000000008000B501F
:108000000DDB100011E31399152A16A11800194C65
:108010001A881BB61CD81DEF1EFC200020FC21F185
:1080200022DF23C724A92586265E2731280028CBF6
:1080300029922A552B152BD12C8B2D412DF52EA6AF
:108040002F54300030A9315131F63299333A33D9B7
:108050003476351135AA364236D8376D3800389225
:10806000392239B03A3E3ACA3B543BDE3C663CEDDD
:108070003D733DF83E7B3EFE3F7F4000408040FE2A
:10808000417C41F8427442EF436943E2445A44D28E
:10809000454845BE463346A7471B478E48004871B2
:1080A00048E2495249C24A304A9E4B0C4B794BE553
:1080B0004C514CBC4D264D904DF94E624ECA4F323C
:1080C0004F995000506650CC5131519651FA525D43
:1080D00052C15323538653E8544954AA550B556B48
:1080E00055CA562A568956E7574557A35800585D32
:1080F00058B95916597159CD5A285A825ADD5B37E9
:108100005B905BEA5C435C9B5CF45D4C5DA35DFB58
:108110005E525EA85EFF5F555FAB6000605560AA6F
:1081200060FF615361A761FB624E62A162F4634725
:10813000639963EC643D648F64E06531658265D367
:108140006623667366C36713676267B16800684F2A
:10815000689D68EB6939698769D46A226A6F6ABC6D
:108160006B086B556BA16BED6C396C846CD06D1B1F
:108170006D666DB16DFB6E466E906EDA6F246F6D3D
:108180006FB770007049709270DB7123716B71B4BE
:1081900071FC7243728B72D2731A736173A873EE9F
:1081A0007435747B74C27508754E759375D9761ED7
:1081B000766476A976EE7733777777BC7800784463
:1081C000788878CC79107953799779DA7A1D7A6042
:1081D0007AA37AE67B297B6B7BAD7BEF7C327C7369
:1081E0007CB57CF77D387D7A7DBB7DFC7E3D7E7ED7
:1081F0007EBE7EFF7F3F7F807FC0000202020404BC
:108200000404040404040404040406060606060622
:1082100006060606060606060606060606060606FE
:1082200006060606060606060606060606060606EE
:1082300006060606060606060606080808080808D2
:1082400008080808080808080808080808080808AE
:10825000080808080808080808080808080808089E
:10826000080808080808080808080808080808088E
:10827000080808080808080808080808080808087E
:10828000080808080808080808080808080808086E
:10829000080808080808080808080808080808085E
:1082A000080808080808080808080808080808084E
:1082B000080808080808080808080808080808083E
:1082C000080808080808080808080808080808082E
:1082D000080808080808080808080808080808081E
:1082E000080808080808080808080808080808080E
:1082F00008080808080808080808807F7F7F7F7F33
:108300007E7E7D7C7C7B7A79787776757372706FF0
:108310006D6C6A68666462605E5C5A585553514E73
:108320004C494744413F3C393633312E2B282522D6
:108330001F1C1915120F0C09060300000000000095
:10834000FFFF80005555400033332AAB24922000B4
:108350001C72199A1746155513B1124911111000C4
:108360000F0F0E390D790CCD0C310BA30B210AAB7D
:108370000A3D09D9097B092508D408890842080063
:1083800007C207880750071C06EB06BD0690066665
:10839000063E061805F405D105B005910572055590
:1083A0000539051F050504EC04D504BE04A8049294
:1083B000047E046A045704440432042104100400B7
:1083C00003F003E103D203C403B603A8039B038EA7
:1083D00003820376036A035E03530348033E0333B9
:1083E0000329031F0316030C030302FA02F102E937
:1083F00002E002D802D002C802C102B902B202AB46
:1084000002A4029D0296028F02890283027C0276F8
:108410000270026A0264025F02590254024E02496B
:108420000244023F023A02350230022B02270222A6
:10843000021E021902150211020C020802040200B7
:1084400001FC01F801F401F001ED01E901E501E2AF
:1084500001DE01DB01D701D401D101CE01CA01C780
:1084600001C401C101BE01BB01B801B501B201AF38
:1084700001AC01AA01A701A401A1019F019C019ADD
:108480000197019501920190018D018B0188018670
:1084900001840182017F017D017B01790176000069
:1084A000BE73C55407AEE68E2F9D75CD2C85C44E88
:1084B00032B6499B85081E9D29A4DA386B94D3FFF8
:1084C00014F46367EB9DB43F2EBB478ADA379DCB2C
:1084D00065F93EA2593EFBC3157B39581999D43131
:1084E0009A5A65111F6E7B2A2FFDBAB9A4BF38FBBB
:1084F00050835A0404855A04A48196000000851C08
:1085000000800000000004CC00007A040000852CEC
:10851000008004CC00002E4400007BDA014A02FFF8
:0C852000FF01FF01FF01FF018B000000C4
:04000005000000C136
:00000001FF
